Bloque: 305799563210270350000006049925                    CACaja de Ahorro      S$         321B. SANTIAGO DEL ESTERO         23305799564RAMIREZ CASTILLO,MARIANELA VANINA                           P00000000000NNNNNNNNNNNNNNNNNNNNNNNNNNNNNNNNNNNNNNNNNNNNNNNNNNNNNNNNNNNNP00000000000NNNNNNNNNNNNNNNNNNNNNNNNNNNNNNNNNNNNNNNNNNNNNNNNNNNNNNNNNNNNP00000000000NNNNNNNNNNNNNNNNNNNNNNNNNNNNNNNNNNNNNNNNNNNNNNNNNNNNNNNNNNNN20190513000000001
Bloque: 144997452680000611000001056574                    CACaja de Ahorro      S$         268BANCO TIERRA DEL FUEGO         27144997455PELEGRINA LILIANA BEATRIZ                                   P00000000000NNNNNNNNNNNNNNNNNNNNNNNNNNNNNNNNNNNNNNNNNNNNNNNNNNNNNNNNNNNNP00000000000NNNNNNNNNNNNNNNNNNNNNNNNNNNNNNNNNNNNNNNNNNNNNNNNNNNNNNNNNNNNP00000000000NNNNNNNNNNNNNNNNNNNNNNNNNNNNNNNNNNNNNNNNNNNNNNNNNNNNNNNNNNNN20190514000000001
Bloque: 229030210720229488000037052618                    CCCuenta Corriente    S$         072BANCO SANTANDER RIO            20229030214DOMINGUEZ GUILLERMO MARTIN                                  P00000000000NNNNNNNNNNNNNNNNNNNNNNNNNNNNNNNNNNNNNNNNNNNNNNNNNNNNNNNNNNNNP00000000000NNNNNNNNNNNNNNNNNNNNNNNNNNNNNNNNNNNNNNNNNNNNNNNNNNNNNNNNNNNNP00000000000NNNNNNNNNNNNNNNNNNNNNNNNNNNNNNNNNNNNNNNNNNNNNNNNNNNNNNNNNNNN20190515000000001
Bloque: 214283581910217555021751326496                    CCCuenta Corriente    S$         191BANCO CREDICOOP                27214283587VILLAGRA MARIA LUZ                                          P00000000000NNNNNNNNNNNNNNNNNNNNNNNNNNNNNNNNNNNNNNNNNNNNNNNNNNNNNNNNNNNNP00000000000NNNNNNNNNNNNNNNNNNNNNNNNNNNNNNNNNNNNNNNNNNNNNNNNNNNNNNNNNNNNP00000000000NNNNNNNNNNNNNNNNNNNNNNNNNNNNNNNNNNNNNNNNNNNNNNNNNNNNNNNNNNNN20190515000000001
Bloque: 209098770830004131002521480019                    CACaja de Ahorro      S$         083BCO.PROVINCIA CHUBUT           27209098771DELLE COSTE SILVINA ALICIA                                  P00000000000NNNNNNNNNNNNNNNNNNNNNNNNNNNNNNNNNNNNNNNNNNNNNNNNNNNNNNNNNNNNP00000000000NNNNNNNNNNNNNNNNNNNNNNNNNNNNNNNNNNNNNNNNNNNNNNNNNNNNNNNNNNNNP00000000000NNNNNNNNNNNNNNNNNNNNNNNNNNNNNNNNNNNNNNNNNNNNNNNNNNNNNNNNNNNN20180502000000001
Bloque: 297205782850015740094964334228                    CACAJA DE AHORRO      SS         MBSBANCO MACRO                   F20297205782GERARDO EMANUEL CORREA                                      P00000000000NNNNNNNNNNNNNNNNNNNNNNNNNNNNNNNNNNNNNNNNNNNNNNNNNNNNNNNNNNNNP00000000000NNNNNNNNNNNNNNNNNNNNNNNNNNNNNNNNNNNNNNNNNNNNNNNNNNNNNNNNNNNNP00000000000NNNNNNNNNNNNNNNNNNNNNNNNNNNNNNNNNNNNNNNNNNNNNNNNNNNNNNNNNNNN20190514000000001
Bloque: 300516580110732830073201330079                    CACaja de Ahorro      S$         011BCO. NACION ARGENTINA          27300516586CABELLO SANTIAGO GISELA EDIT                                P00000000000NNNNNNNNNNNNNNNNNNNNNNNNNNNNNNNNNNNNNNNNNNNNNNNNNNNNNNNNNNNNP00000000000NNNNNNNNNNNNNNNNNNNNNNNNNNNNNNNNNNNNNNNNNNNNNNNNNNNNNNNNNNNNP00000000000NNNNNNNNNNNNNNNNNNNNNNNNNNNNNNNNNNNNNNNNNNNNNNNNNNNNNNNNNNNN20220902000000001
Bloque: 359631091500131500013160300864                    CACaja de Ahorro      S$         150HSBC BANK ARG. S.A             27359631095PERALTA, DEBORA DAYANA/                                     P00000000000NNNNNNNNNNNNNNNNNNNNNNNNNNNNNNNNNNNNNNNNNNNNNNNNNNNNNNNNNNNNP00000000000NNNNNNNNNNNNNNNNNNNNNNNNNNNNNNNNNNNNNNNNNNNNNNNNNNNNNNNNNNNNP00000000000NNNNNNNNNNNNNNNNNNNNNNNNNNNNNNNNNNNNNNNNNNNNNNNNNNNNNNNNNNNN20190515000000001
Bloque: 319651520070349730004012514879                    CACaja de Ahorro      S$         007BANCO DE GALICIA               20319651528JARA PABLO GERMAN                                           P00000000000NNNNNNNNNNNNNNNNNNNNNNNNNNNNNNNNNNNNNNNNNNNNNNNNNNNNNNNNNNNNP00000000000NNNNNNNNNNNNNNNNNNNNNNNNNNNNNNNNNNNNNNNNNNNNNNNNNNNNNNNNNNNNP00000000000NNNNNNNNNNNNNNNNNNNNNNNNNNNNNNNNNNNNNNNNNNNNNNNNNNNNNNNNNNNN20190513000000001
Bloque: 370663790070011530004028037216                    CACaja de Ahorro      S$         007BANCO DE GALICIA               27370663799GOMEZ  LORENA ARACELI                                       P00000000000NNNNNNNNNNNNNNNNNNNNNNNNNNNNNNNNNNNNNNNNNNNNNNNNNNNNNNNNNNNNP00000000000NNNNNNNNNNNNNNNNNNNNNNNNNNNNNNNNNNNNNNNNNNNNNNNNNNNNNNNNNNNNP00000000000NNNNNNNNNNNNNNNNNNNNNNNNNNNNNNNNNNNNNNNNNNNNNNNNNNNNNNNNNNNN20190513000000001
Bloque: 219446100720264588000035761822                    CCCuenta Corriente    S$         072BANCO SANTANDER RIO            27219446107PAJON PARRA MYRNA RUTH                                      P00000000000NNNNNNNNNNNNNNNNNNNNNNNNNNNNNNNNNNNNNNNNNNNNNNNNNNNNNNNNNNNNP00000000000NNNNNNNNNNNNNNNNNNNNNNNNNNNNNNNNNNNNNNNNNNNNNNNNNNNNNNNNNNNNP00000000000NNNNNNNNNNNNNNNNNNNNNNNNNNNNNNNNNNNNNNNNNNNNNNNNNNNNNNNNNNNN20190515000000001
Bloque: 241839360070081830004048440777                    CACAJA DE AHORRO      SS         LCABanco Galicia                 F27241839368GIMENA HEREDIA                                              P00000000000NNNNNNNNNNNNNNNNNNNNNNNNNNNNNNNNNNNNNNNNNNNNNNNNNNNNNNNNNNNNP00000000000NNNNNNNNNNNNNNNNNNNNNNNNNNNNNNNNNNNNNNNNNNNNNNNNNNNNNNNNNNNNP00000000000NNNNNNNNNNNNNNNNNNNNNNNNNNNNNNNNNNNNNNNNNNNNNNNNNNNNNNNNNNNN20190514000000001
Bloque: 221646020720209688000036884454                    CCCuenta Corriente    S$         072SANTANDER                      27221646024ARAUJO EVANGELINA BARCILICI                                 P00000000000NNNNNNNNNNNNNNNNNNNNNNNNNNNNNNNNNNNNNNNNNNNNNNNNNNNNNNNNNNNNP00000000000NNNNNNNNNNNNNNNNNNNNNNNNNNNNNNNNNNNNNNNNNNNNNNNNNNNNNNNNNNNNP00000000000NNNNNNNNNNNNNNNNNNNNNNNNNNNNNNNNNNNNNNNNNNNNNNNNNNNNNNNNNNNN20200812000000001
Bloque: 229847030290040710000051384439                    CACAJA DE AHORRO      SS         INKBANCO CIUDAD                  F20229847032FABIAN ALEJANDRO RIOS                                       P00000000000NNNNNNNNNNNNNNNNNNNNNNNNNNNNNNNNNNNNNNNNNNNNNNNNNNNNNNNNNNNNP00000000000NNNNNNNNNNNNNNNNNNNNNNNNNNNNNNNNNNNNNNNNNNNNNNNNNNNNNNNNNNNNP00000000000NNNNNNNNNNNNNNNNNNNNNNNNNNNNNNNNNNNNNNNNNNNNNNNNNNNNNNNNNNNN20190515000000001
Bloque: 144051940110266830026609061601                    CACaja de Ahorro      S$         011BCO. NACION ARGENTINA          27144051942ROUSE LILIANA EDITH                                         P00000000000NNNNNNNNNNNNNNNNNNNNNNNNNNNNNNNNNNNNNNNNNNNNNNNNNNNNNNNNNNNNP00000000000NNNNNNNNNNNNNNNNNNNNNNNNNNNNNNNNNNNNNNNNNNNNNNNNNNNNNNNNNNNNP00000000000NNNNNNNNNNNNNNNNNNNNNNNNNNNNNNNNNNNNNNNNNNNNNNNNNNNNNNNNNNNN20190513000000001
Bloque: 294641900940099360006165040026                    CACaja de Ahorro      S$         094BANCO CORRIENTES               23294641904GIACOMUZZI MARIA EUGENIA                                    P00000000000NNNNNNNNNNNNNNNNNNNNNNNNNNNNNNNNNNNNNNNNNNNNNNNNNNNNNNNNNNNNP00000000000NNNNNNNNNNNNNNNNNNNNNNNNNNNNNNNNNNNNNNNNNNNNNNNNNNNNNNNNNNNNP00000000000NNNNNNNNNNNNNNNNNNNNNNNNNNNNNNNNNNNNNNNNNNNNNNNNNNNNNNNNNNNN20190513000000001
Bloque: 277152740940099366001255880018                    CACaja de Ahorro      S$         094BANCO CORRIENTES               27277152741BARRIOS ROSALIA ANDREA ITATI                                P00000000000NNNNNNNNNNNNNNNNNNNNNNNNNNNNNNNNNNNNNNNNNNNNNNNNNNNNNNNNNNNNP00000000000NNNNNNNNNNNNNNNNNNNNNNNNNNNNNNNNNNNNNNNNNNNNNNNNNNNNNNNNNNNNP00000000000NNNNNNNNNNNNNNNNNNNNNNNNNNNNNNNNNNNNNNNNNNNNNNNNNNNNNNNNNNNN20180305000000001
Bloque: 228695930150830501000111666208                    CACAJA DE AHORRO      SS         STNICBC                          F27228695934SILVIA VERONICA TORRES                                      P00000000000NNNNNNNNNNNNNNNNNNNNNNNNNNNNNNNNNNNNNNNNNNNNNNNNNNNNNNNNNNNNP00000000000NNNNNNNNNNNNNNNNNNNNNNNNNNNNNNNNNNNNNNNNNNNNNNNNNNNNNNNNNNNNP00000000000NNNNNNNNNNNNNNNNNNNNNNNNNNNNNNNNNNNNNNNNNNNNNNNNNNNNNNNNNNNN20190514000000001
Bloque: 124680590200349611000014748776                    CACaja de Ahorro      S$         020BCO PCIA DE CORDOBA SA         20124680590FRANCESCHINI, GUSTAVO TOMAS                                 P00000000000NNNNNNNNNNNNNNNNNNNNNNNNNNNNNNNNNNNNNNNNNNNNNNNNNNNNNNNNNNNNP00000000000NNNNNNNNNNNNNNNNNNNNNNNNNNNNNNNNNNNNNNNNNNNNNNNNNNNNNNNNNNNNP00000000000NNNNNNNNNNNNNNNNNNNNNNNNNNNNNNNNNNNNNNNNNNNNNNNNNNNNNNNNNNNN20220609000000001
Bloque: 367935570170247940000004149699                    CACaja de Ahorro      S$         017BBVA FRANCES                   20367935570GONZALEZ  MARCELO FE                                        P00000000000NNNNNNNNNNNNNNNNNNNNNNNNNNNNNNNNNNNNNNNNNNNNNNNNNNNNNNNNNNNNP00000000000NNNNNNNNNNNNNNNNNNNNNNNNNNNNNNNNNNNNNNNNNNNNNNNNNNNNNNNNNNNNP00000000000NNNNNNNNNNNNNNNNNNNNNNNNNNNNNNNNNNNNNNNNNNNNNNNNNNNNNNNNNNNN20190514000000001
Bloque: 113883730070112530004191099118                    CACaja de Ahorro      S$         007BANCO DE GALICIA               27113883737CARBAJAL NOEMI CATALIN                                      P00000000000NNNNNNNNNNNNNNNNNNNNNNNNNNNNNNNNNNNNNNNNNNNNNNNNNNNNNNNNNNNNP00000000000NNNNNNNNNNNNNNNNNNNNNNNNNNNNNNNNNNNNNNNNNNNNNNNNNNNNNNNNNNNNP00000000000NNNNNNNNNNNNNNNNNNNNNNNNNNNNNNNNNNNNNNNNNNNNNNNNNNNNNNNNNNNN20190515000000001
Bloque: 319644112990044404410778360019                    CACaja de Ahorro      S$         299BANCO COMAFI                   27319644119VERETTI BARBARA JACQUELINE                                  P00000000000NNNNNNNNNNNNNNNNNNNNNNNNNNNNNNNNNNNNNNNNNNNNNNNNNNNNNNNNNNNNP00000000000NNNNNNNNNNNNNNNNNNNNNNNNNNNNNNNNNNNNNNNNNNNNNNNNNNNNNNNNNNNNP00000000000NNNNNNNNNNNNNNNNNNNNNNNNNNNNNNNNNNNNNNNNNNNNNNNNNNNNNNNNNNNN20191210000000001
Bloque: 346831172850794340095472155158                    CACaja de Ahorro      S$         285BANCO MACRO                    20346831171SANTANDREA BRUNO                                            P00000000000NNNNNNNNNNNNNNNNNNNNNNNNNNNNNNNNNNNNNNNNNNNNNNNNNNNNNNNNNNNNP00000000000NNNNNNNNNNNNNNNNNNNNNNNNNNNNNNNNNNNNNNNNNNNNNNNNNNNNNNNNNNNNP00000000000NNNNNNNNNNNNNNNNNNNNNNNNNNNNNNNNNNNNNNNNNNNNNNNNNNNNNNNNNNNN20230412000000001
Bloque: 352412100070177430004033293311                    CACaja de Ahorro      S$         007BANCO DE GALICIA               20352412105OLIVERA BURGOS LUCAS MARTIN                                 P00000000000NNNNNNNNNNNNNNNNNNNNNNNNNNNNNNNNNNNNNNNNNNNNNNNNNNNNNNNNNNNNP00000000000NNNNNNNNNNNNNNNNNNNNNNNNNNNNNNNNNNNNNNNNNNNNNNNNNNNNNNNNNNNNP00000000000NNNNNNNNNNNNNNNNNNNNNNNNNNNNNNNNNNNNNNNNNNNNNNNNNNNNNNNNNNNN20190515000000001
Bloque: 209568980720734388000035608868                    CCCuenta Corriente    S$         072BANCO SANTANDER RIO            27209568980ANTOLA DANIELA MARIA FERNANDO                               P00000000000NNNNNNNNNNNNNNNNNNNNNNNNNNNNNNNNNNNNNNNNNNNNNNNNNNNNNNNNNNNNP00000000000NNNNNNNNNNNNNNNNNNNNNNNNNNNNNNNNNNNNNNNNNNNNNNNNNNNNNNNNNNNNP00000000000NNNNNNNNNNNNNNNNNNNNNNNNNNNNNNNNNNNNNNNNNNNNNNNNNNNNNNNNNNNN20190514000000001
Bloque: 350093500720181988000036418536                    CCCuenta Corriente    S$         072BANCO SANTANDER RIO            27350093503GARCIA SANDRA ROMINA                                        P00000000000NNNNNNNNNNNNNNNNNNNNNNNNNNNNNNNNNNNNNNNNNNNNNNNNNNNNNNNNNNNNP00000000000NNNNNNNNNNNNNNNNNNNNNNNNNNNNNNNNNNNNNNNNNNNNNNNNNNNNNNNNNNNNP00000000000NNNNNNNNNNNNNNNNNNNNNNNNNNNNNNNNNNNNNNNNNNNNNNNNNNNNNNNNNNNN20190514000000001
Bloque: 322388540070076430004032389613DORADO.BURRO.PATRON CACaja de Ahorro      S$         007BANCO DE GALICIA               27322388549VIDELA CARLA                                                P00000000000NNNNNNNNNNNNNNNNNNNNNNNNNNNNNNNNNNNNNNNNNNNNNNNNNNNNNNNNNNNNP00000000000NNNNNNNNNNNNNNNNNNNNNNNNNNNNNNNNNNNNNNNNNNNNNNNNNNNNNNNNNNNNP00000000000NNNNNNNNNNNNNNNNNNNNNNNNNNNNNNNNNNNNNNNNNNNNNNNNNNNNNNNNNNNN20180703000000001
Bloque: 374438523210001130007943339436                    CCCUENTA CORRIENTE    SS         INKB. SANTIAGO DEL ESTERO        F20374438523FRANCO RAMON CISNEROS                                       P00000000000NNNNNNNNNNNNNNNNNNNNNNNNNNNNNNNNNNNNNNNNNNNNNNNNNNNNNNNNNNNNP00000000000NNNNNNNNNNNNNNNNNNNNNNNNNNNNNNNNNNNNNNNNNNNNNNNNNNNNNNNNNNNNP00000000000NNNNNNNNNNNNNNNNNNNNNNNNNNNNNNNNNNNNNNNNNNNNNNNNNNNNNNNNNNNN20190513000000001
Bloque: 349985250290024710000050597489                    CACaja de Ahorro      S$         029BANCO CIUDAD                   27349985255GRAUSO ESTEFANIA SOLEDA                                     P00000000000NNNNNNNNNNNNNNNNNNNNNNNNNNNNNNNNNNNNNNNNNNNNNNNNNNNNNNNNNNNNP00000000000NNNNNNNNNNNNNNNNNNNNNNNNNNNNNNNNNNNNNNNNNNNNNNNNNNNNNNNNNNNNP00000000000NNNNNNNNNNNNNNNNNNNNNNNNNNNNNNNNNNNNNNNNNNNNNNNNNNNNNNNNNNNN20190205000000001
Bloque: 350481470170087940000037235835                    CACaja de Ahorro      S$         017BBVA FRANCES                   27350481473GUERRERO  ALAN BENJA                                        P00000000000NNNNNNNNNNNNNNNNNNNNNNNNNNNNNNNNNNNNNNNNNNNNNNNNNNNNNNNNNNNNP00000000000NNNNNNNNNNNNNNNNNNNNNNNNNNNNNNNNNNNNNNNNNNNNNNNNNNNNNNNNNNNNP00000000000NNNNNNNNNNNNNNNNNNNNNNNNNNNNNNNNNNNNNNNNNNNNNNNNNNNNNNNNNNNN20190513000000001
Bloque: 139786460200924111000003535862                    CACaja de Ahorro      S$         020BCO PCIA DE CORDOBA SA         20139786468RUBIOLO, RAUL EDUARDO                                       P00000000000NNNNNNNNNNNNNNNNNNNNNNNNNNNNNNNNNNNNNNNNNNNNNNNNNNNNNNNNNNNNP00000000000NNNNNNNNNNNNNNNNNNNNNNNNNNNNNNNNNNNNNNNNNNNNNNNNNNNNNNNNNNNNP00000000000NNNNNNNNNNNNNNNNNNNNNNNNNNNNNNNNNNNNNNNNNNNNNNNNNNNNNNNNNNNN20230104000000001
Bloque: 330953870720179688000025081822CARDO.JARRO.RANA    CCCUENTA CORRIENTE    SS         IOPBANCO SANTANDER RIO           F20330953870EZEQUI VELAZQUEZ HEREDIA                                    P00000000000NNNNNNNNNNNNNNNNNNNNNNNNNNNNNNNNNNNNNNNNNNNNNNNNNNNNNNNNNNNNP00000000000NNNNNNNNNNNNNNNNNNNNNNNNNNNNNNNNNNNNNNNNNNNNNNNNNNNNNNNNNNNNP00000000000NNNNNNNNNNNNNNNNNNNNNNNNNNNNNNNNNNNNNNNNNNNNNNNNNNNNNNNNNNNN20190514000000001
Bloque: 213072023150001002001000773455                    CACaja de Ahorro      S$         315BCO. PROV. FORMOSA             27213072027IRALA MARIA DEL CARMEN                                      P00000000000NNNNNNNNNNNNNNNNNNNNNNNNNNNNNNNNNNNNNNNNNNNNNNNNNNNNNNNNNNNNP00000000000NNNNNNNNNNNNNNNNNNNNNNNNNNNNNNNNNNNNNNNNNNNNNNNNNNNNNNNNNNNNP00000000000NNNNNNNNNNNNNNNNNNNNNNNNNNNNNNNNNNNNNNNNNNNNNNNNNNNNNNNNNNNN20180705000000001
Bloque: 305759050720522488000035315418                    CCCuenta Corriente    S$         072BANCO SANTANDER RIO            27305759053BLANDI CARLA EUGENIA                                        P00000000000NNNNNNNNNNNNNNNNNNNNNNNNNNNNNNNNNNNNNNNNNNNNNNNNNNNNNNNNNNNNP00000000000NNNNNNNNNNNNNNNNNNNNNNNNNNNNNNNNNNNNNNNNNNNNNNNNNNNNNNNNNNNNP00000000000NNNNNNNNNNNNNNNNNNNNNNNNNNNNNNNNNNNNNNNNNNNNNNNNNNNNNNNNNNNN20190515000000001
Bloque: 279696130150516001000139548920                    CACaja de Ahorro      S$         015ICBC                           20279696132PEREZ RICARDO JAVIER                                        P00000000000NNNNNNNNNNNNNNNNNNNNNNNNNNNNNNNNNNNNNNNNNNNNNNNNNNNNNNNNNNNNP00000000000NNNNNNNNNNNNNNNNNNNNNNNNNNNNNNNNNNNNNNNNNNNNNNNNNNNNNNNNNNNNP00000000000NNNNNNNNNNNNNNNNNNNNNNNNNNNNNNNNNNNNNNNNNNNNNNNNNNNNNNNNNNNN20190613000000001
Bloque: 128030622850114340095040816568                    CACaja de Ahorro      S$         285BANCO MACRO                    20128030620D ANDREA HUMBERTO JULIO                                     P00000000000NNNNNNNNNNNNNNNNNNNNNNNNNNNNNNNNNNNNNNNNNNNNNNNNNNNNNNNNNNNNP00000000000NNNNNNNNNNNNNNNNNNNNNNNNNNNNNNNNNNNNNNNNNNNNNNNNNNNNNNNNNNNNP00000000000NNNNNNNNNNNNNNNNNNNNNNNNNNNNNNNNNNNNNNNNNNNNNNNNNNNNNNNNNNNN20190515000000001
Bloque: 322817990070076430004037975112tincho08            CACaja de Ahorro      S$         007BANCO DE GALICIA               20322817992GUTIERREZ MARTIN                                            P00000000000NNNNNNNNNNNNNNNNNNNNNNNNNNNNNNNNNNNNNNNNNNNNNNNNNNNNNNNNNNNNP00000000000NNNNNNNNNNNNNNNNNNNNNNNNNNNNNNNNNNNNNNNNNNNNNNNNNNNNNNNNNNNNP00000000000NNNNNNNNNNNNNNNNNNNNNNNNNNNNNNNNNNNNNNNNNNNNNNNNNNNNNNNNNNNN20180129000000001
Bloque: 281244512850600140080079919164                    CACaja de Ahorro      S$         285BANCO MACRO                    27281244510MEDINA RAMONA NOEMI                                         P00000000000NNNNNNNNNNNNNNNNNNNNNNNNNNNNNNNNNNNNNNNNNNNNNNNNNNNNNNNNNNNNP00000000000NNNNNNNNNNNNNNNNNNNNNNNNNNNNNNNNNNNNNNNNNNNNNNNNNNNNNNNNNNNNP00000000000NNNNNNNNNNNNNNNNNNNNNNNNNNNNNNNNNNNNNNNNNNNNNNNNNNNNNNNNNNNN20191212000000001
Bloque: 391495362850546640094889589758                    CACaja de Ahorro      S$         285BANCO MACRO                    20391495360ARAVENA ALVAREZ BRAIAN FEDERICO                             P00000000000NNNNNNNNNNNNNNNNNNNNNNNNNNNNNNNNNNNNNNNNNNNNNNNNNNNNNNNNNNNNP00000000000NNNNNNNNNNNNNNNNNNNNNNNNNNNNNNNNNNNNNNNNNNNNNNNNNNNNNNNNNNNNP00000000000NNNNNNNNNNNNNNNNNNNNNNNNNNNNNNNNNNNNNNNNNNNNNNNNNNNNNNNNNNNN20190514000000001
Bloque: 323694740720066388000014526718                    CCCuenta Corriente    S$         072BANCO SANTANDER RIO            20323694746RODRIGUEZ MIGUEL DANIEL                                     P00000000000NNNNNNNNNNNNNNNNNNNNNNNNNNNNNNNNNNNNNNNNNNNNNNNNNNNNNNNNNNNNP00000000000NNNNNNNNNNNNNNNNNNNNNNNNNNNNNNNNNNNNNNNNNNNNNNNNNNNNNNNNNNNNP00000000000NNNNNNNNNNNNNNNNNNNNNNNNNNNNNNNNNNNNNNNNNNNNNNNNNNNNNNNNNNNN20190514000000001
Bloque: 170248542850600140080079876232                    CACAJA DE AHORRO      SS         MBSBANCO MACRO                   F20170248547Braulio Diaz                                                P00000000000NNNNNNNNNNNNNNNNNNNNNNNNNNNNNNNNNNNNNNNNNNNNNNNNNNNNNNNNNNNNP00000000000NNNNNNNNNNNNNNNNNNNNNNNNNNNNNNNNNNNNNNNNNNNNNNNNNNNNNNNNNNNNP00000000000NNNNNNNNNNNNNNNNNNNNNNNNNNNNNNNNNNNNNNNNNNNNNNNNNNNNNNNNNNNN20200118000000001
Bloque: 309060180150518401000117918556                    CACAJA DE AHORRO      SS         STNICBC                          F20309060181Pablo Monteros                                              P00000000000NNNNNNNNNNNNNNNNNNNNNNNNNNNNNNNNNNNNNNNNNNNNNNNNNNNNNNNNNNNNP00000000000NNNNNNNNNNNNNNNNNNNNNNNNNNNNNNNNNNNNNNNNNNNNNNNNNNNNNNNNNNNNP00000000000NNNNNNNNNNNNNNNNNNNNNNNNNNNNNNNNNNNNNNNNNNNNNNNNNNNNNNNNNNNN20200114000000001
Bloque: 173758230720099188000033347686                    CCCuenta Corriente    S$         072BANCO SANTANDER RIO            27173758230GIMENEZ VERONICA MARCELA                                    P00000000000NNNNNNNNNNNNNNNNNNNNNNNNNNNNNNNNNNNNNNNNNNNNNNNNNNNNNNNNNNNNP00000000000NNNNNNNNNNNNNNNNNNNNNNNNNNNNNNNNNNNNNNNNNNNNNNNNNNNNNNNNNNNNP00000000000NNNNNNNNNNNNNNNNNNNNNNNNNNNNNNNNNNNNNNNNNNNNNNNNNNNNNNNNNNNN20180502000000001
Bloque: 364266960140125303504150776303                    CACaja de Ahorro      S$         014BANCO PROVINCIA BS.AS.         20364266961GONZALO GABRIEL,PALOMINO                                    P00000000000NNNNNNNNNNNNNNNNNNNNNNNNNNNNNNNNNNNNNNNNNNNNNNNNNNNNNNNNNNNNP00000000000NNNNNNNNNNNNNNNNNNNNNNNNNNNNNNNNNNNNNNNNNNNNNNNNNNNNNNNNNNNNP00000000000NNNNNNNNNNNNNNNNNNNNNNNNNNNNNNNNNNNNNNNNNNNNNNNNNNNNNNNNNNNN20190514000000001
Bloque: 359885360170367040000001691438                    CACaja de Ahorro      S$         017BBVA FRANCES                   23359885369KENER     NICOLAS                                           P00000000000NNNNNNNNNNNNNNNNNNNNNNNNNNNNNNNNNNNNNNNNNNNNNNNNNNNNNNNNNNNNP00000000000NNNNNNNNNNNNNNNNNNNNNNNNNNNNNNNNNNNNNNNNNNNNNNNNNNNNNNNNNNNNP00000000000NNNNNNNNNNNNNNNNNNNNNNNNNNNNNNNNNNNNNNNNNNNNNNNNNNNNNNNNNNNN20220705000000001
Bloque: 356379621910112755111200385685                    CACaja de Ahorro      S$         191BANCO CREDICOOP                23356379624VILLARNOVO ELIZABETH                                        P00000000000NNNNNNNNNNNNNNNNNNNNNNNNNNNNNNNNNNNNNNNNNNNNNNNNNNNNNNNNNNNNP00000000000NNNNNNNNNNNNNNNNNNNNNNNNNNNNNNNNNNNNNNNNNNNNNNNNNNNNNNNNNNNNP00000000000NNNNNNNNNNNNNNNNNNNNNNNNNNNNNNNNNNNNNNNNNNNNNNNNNNNNNNNNNNNN20190515000000001
Bloque: 178926270600000440081000053575                    CACaja de Ahorro      S$         060BANCO DEL TUCUMAN              20178926277ARROYO SEGUNDO ANTON                                        P00000000000NNNNNNNNNNNNNNNNNNNNNNNNNNNNNNNNNNNNNNNNNNNNNNNNNNNNNNNNNNNNP00000000000NNNNNNNNNNNNNNNNNNNNNNNNNNNNNNNNNNNNNNNNNNNNNNNNNNNNNNNNNNNNP00000000000NNNNNNNNNNNNNNNNNNNNNNNNNNNNNNNNNNNNNNNNNNNNNNNNNNNNNNNNNNNN20190513000000001
Bloque: 358105830720230088000034577736                    CCCuenta Corriente    S$         072SANTANDER                      27358105837ABAD VALDEZ IVANA ALEJANDRA                                 P00000000000NNNNNNNNNNNNNNNNNNNNNNNNNNNNNNNNNNNNNNNNNNNNNNNNNNNNNNNNNNNNP00000000000NNNNNNNNNNNNNNNNNNNNNNNNNNNNNNNNNNNNNNNNNNNNNNNNNNNNNNNNNNNNP00000000000NNNNNNNNNNNNNNNNNNNNNNNNNNNNNNNNNNNNNNNNNNNNNNNNNNNNNNNNNNNN20200428000000001
Bloque: 324257002990003100310486860019                    CACaja de Ahorro      S$         299BANCO COMAFI                   23324257004MONROIG JULIETA                                             P00000000000NNNNNNNNNNNNNNNNNNNNNNNNNNNNNNNNNNNNNNNNNNNNNNNNNNNNNNNNNNNNP00000000000NNNNNNNNNNNNNNNNNNNNNNNNNNNNNNNNNNNNNNNNNNNNNNNNNNNNNNNNNNNNP00000000000NNNNNNNNNNNNNNNNNNNNNNNNNNNNNNNNNNNNNNNNNNNNNNNNNNNNNNNNNNNN20190514000000001
Bloque: 220763070150508501000114087949                    CACaja de Ahorro      S$         015ICBC                           20220763073PAZ JAVIER ALEJANDRO                                        P00000000000NNNNNNNNNNNNNNNNNNNNNNNNNNNNNNNNNNNNNNNNNNNNNNNNNNNNNNNNNNNNP00000000000NNNNNNNNNNNNNNNNNNNNNNNNNNNNNNNNNNNNNNNNNNNNNNNNNNNNNNNNNNNNP00000000000NNNNNNNNNNNNNNNNNNNNNNNNNNNNNNNNNNNNNNNNNNNNNNNNNNNNNNNNNNNN20190514000000001
Bloque: 352069480170094740000038282243                    CACaja de Ahorro      S$         017BBVA FRANCES                   27352069480MANRIQUE  STEFANIA                                          P00000000000NNNNNNNNNNNNNNNNNNNNNNNNNNNNNNNNNNNNNNNNNNNNNNNNNNNNNNNNNNNNP00000000000NNNNNNNNNNNNNNNNNNNNNNNNNNNNNNNNNNNNNNNNNNNNNNNNNNNNNNNNNNNNP00000000000NNNNNNNNNNNNNNNNNNNNNNNNNNNNNNNNNNNNNNNNNNNNNNNNNNNNNNNNNNNN20190514000000001
Bloque: 360069833300518625180047902015NIETA.AGUJA.RANURA  CACaja de Ahorro      S$         330NVO. BANCO DE SANTA FE         23360069834EBERHARDT, JESICA NEREA                                     P00000000000NNNNNNNNNNNNNNNNNNNNNNNNNNNNNNNNNNNNNNNNNNNNNNNNNNNNNNNNNNNNP00000000000NNNNNNNNNNNNNNNNNNNNNNNNNNNNNNNNNNNNNNNNNNNNNNNNNNNNNNNNNNNNP00000000000NNNNNNNNNNNNNNNNNNNNNNNNNNNNNNNNNNNNNNNNNNNNNNNNNNNNNNNNNNNN20180801000000001
Bloque: 182901090110109230010925255479                    CACaja de Ahorro      S$         011BCO. NACION ARGENTINA          20182901092GALLARDO RICARDO JAIME                                      P00000000000NNNNNNNNNNNNNNNNNNNNNNNNNNNNNNNNNNNNNNNNNNNNNNNNNNNNNNNNNNNNP00000000000NNNNNNNNNNNNNNNNNNNNNNNNNNNNNNNNNNNNNNNNNNNNNNNNNNNNNNNNNNNNP00000000000NNNNNNNNNNNNNNNNNNNNNNNNNNNNNNNNNNNNNNNNNNNNNNNNNNNNNNNNNNNN20220803000000001
Bloque: 163997221910059955005951970282                    CCCuenta Corriente    S$         191BANCO CREDICOOP                20163997224FERNANDEZ HECTOR FABIAN                                     P00000000000NNNNNNNNNNNNNNNNNNNNNNNNNNNNNNNNNNNNNNNNNNNNNNNNNNNNNNNNNNNNP00000000000NNNNNNNNNNNNNNNNNNNNNNNNNNNNNNNNNNNNNNNNNNNNNNNNNNNNNNNNNNNNP00000000000NNNNNNNNNNNNNNNNNNNNNNNNNNNNNNNNNNNNNNNNNNNNNNNNNNNNNNNNNNNN20190515000000001
Bloque: 362754050110475630047502620201                    CACaja de Ahorro      S$         011BCO. NACION ARGENTINA          23362754054FUENTES MELANIE AILIN                                       P00000000000NNNNNNNNNNNNNNNNNNNNNNNNNNNNNNNNNNNNNNNNNNNNNNNNNNNNNNNNNNNNP00000000000NNNNNNNNNNNNNNNNNNNNNNNNNNNNNNNNNNNNNNNNNNNNNNNNNNNNNNNNNNNNP00000000000NNNNNNNNNNNNNNNNNNNNNNNNNNNNNNNNNNNNNNNNNNNNNNNNNNNNNNNNNNNN20200114000000001
Bloque: 236268200720741188000035442372RODEO.CALMA.NIETA   CCCuenta Corriente    S$         072BANCO SANTANDER RIO            27236268204BAO MARTA GABRIELA                                          P00000000000NNNNNNNNNNNNNNNNNNNNNNNNNNNNNNNNNNNNNNNNNNNNNNNNNNNNNNNNNNNNP00000000000NNNNNNNNNNNNNNNNNNNNNNNNNNNNNNNNNNNNNNNNNNNNNNNNNNNNNNNNNNNNP00000000000NNNNNNNNNNNNNNNNNNNNNNNNNNNNNNNNNNNNNNNNNNNNNNNNNNNNNNNNNNNN20181101000000001
Bloque: 234906650860010302800075757663REVES.VALIJA.MORA   CACaja de Ahorro      S$         086BANCO SANTA CRUZ               27234906653LLAUCO MARCELA ANDREA                                       P00000000000NNNNNNNNNNNNNNNNNNNNNNNNNNNNNNNNNNNNNNNNNNNNNNNNNNNNNNNNNNNNP00000000000NNNNNNNNNNNNNNNNNNNNNNNNNNNNNNNNNNNNNNNNNNNNNNNNNNNNNNNNNNNNP00000000000NNNNNNNNNNNNNNNNNNNNNNNNNNNNNNNNNNNNNNNNNNNNNNNNNNNNNNNNNNNN20171229000000001
Bloque: 262463560110104730010411445065                    CACaja de Ahorro      S$         011BCO. NACION ARGENTINA          27262463562GONZALEZ CINTYA SOLEDAD                                     P00000000000NNNNNNNNNNNNNNNNNNNNNNNNNNNNNNNNNNNNNNNNNNNNNNNNNNNNNNNNNNNNP00000000000NNNNNNNNNNNNNNNNNNNNNNNNNNNNNNNNNNNNNNNNNNNNNNNNNNNNNNNNNNNNP00000000000NNNNNNNNNNNNNNNNNNNNNNNNNNNNNNNNNNNNNNNNNNNNNNNNNNNNNNNNNNNN20190513000000001
Bloque: 255454071910018655001852732082                    CCCuenta Corriente    S$         191BANCO CREDICOOP                20255454073ROSALES FERNANDO DANIEL                                     P00000000000NNNNNNNNNNNNNNNNNNNNNNNNNNNNNNNNNNNNNNNNNNNNNNNNNNNNNNNNNNNNP00000000000NNNNNNNNNNNNNNNNNNNNNNNNNNNNNNNNNNNNNNNNNNNNNNNNNNNNNNNNNNNNP00000000000NNNNNNNNNNNNNNNNNNNNNNNNNNNNNNNNNNNNNNNNNNNNNNNNNNNNNNNNNNNN20190513000000001
Bloque: 359438140170328140000034475027                    CACaja de Ahorro      S$         017BBVA FRANCES                   27359438147BIANCHI   PATRICIA M                                        P00000000000NNNNNNNNNNNNNNNNNNNNNNNNNNNNNNNNNNNNNNNNNNNNNNNNNNNNNNNNNNNNP00000000000NNNNNNNNNNNNNNNNNNNNNNNNNNNNNNNNNNNNNNNNNNNNNNNNNNNNNNNNNNNNP00000000000NNNNNNNNNNNNNNNNNNNNNNNNNNNNNNNNNNNNNNNNNNNNNNNNNNNNNNNNNNNN20191111000000001
Bloque: 341363780720036688000039075518                    CCCuenta Corriente    S$         072BANCO SANTANDER RIO            20341363781DEL SOLE GONZALO NICOLAS                                    P00000000000NNNNNNNNNNNNNNNNNNNNNNNNNNNNNNNNNNNNNNNNNNNNNNNNNNNNNNNNNNNNP00000000000NNNNNNNNNNNNNNNNNNNNNNNNNNNNNNNNNNNNNNNNNNNNNNNNNNNNNNNNNNNNP00000000000NNNNNNNNNNNNNNNNNNNNNNNNNNNNNNNNNNNNNNNNNNNNNNNNNNNNNNNNNNNN20190514000000001
Bloque: 334489490170083140000044572745                    CACaja de Ahorro      S$         017BBVA FRANCES                   27334489499TAPIA     NOELIA VAN                                        P00000000000NNNNNNNNNNNNNNNNNNNNNNNNNNNNNNNNNNNNNNNNNNNNNNNNNNNNNNNNNNNNP00000000000NNNNNNNNNNNNNNNNNNNNNNNNNNNNNNNNNNNNNNNNNNNNNNNNNNNNNNNNNNNNP00000000000NNNNNNNNNNNNNNNNNNNNNNNNNNNNNNNNNNNNNNNNNNNNNNNNNNNNNNNNNNNN20190514000000001
Bloque: 112030730200320511000011291426                    CACAJA DE AHORRO      SS         INKBCO PCIA DE CORDOBA SA        F27132577051Francisco Gonzalez                                          P00000000000NNNNNNNNNNNNNNNNNNNNNNNNNNNNNNNNNNNNNNNNNNNNNNNNNNNNNNNNNNNNP00000000000NNNNNNNNNNNNNNNNNNNNNNNNNNNNNNNNNNNNNNNNNNNNNNNNNNNNNNNNNNNNP00000000000NNNNNNNNNNNNNNNNNNNNNNNNNNNNNNNNNNNNNNNNNNNNNNNNNNNNNNNNNNNN20190514000000001
Bloque: 073709670270199420012673880012                    CACaja de Ahorro      S$         027BANCO SUPERVIELLE              27073709674ZENOBI IRMA ELSA                                            P00000000000NNNNNNNNNNNNNNNNNNNNNNNNNNNNNNNNNNNNNNNNNNNNNNNNNNNNNNNNNNNNP00000000000NNNNNNNNNNNNNNNNNNNNNNNNNNNNNNNNNNNNNNNNNNNNNNNNNNNNNNNNNNNNP00000000000NNNNNNNNNNNNNNNNNNNNNNNNNNNNNNNNNNNNNNNNNNNNNNNNNNNNNNNNNNNN20190513000000001
Bloque: 348095120720131488000015682022                    CCCuenta Corriente    S$         072BANCO SANTANDER RIO            27348095124ARRARAS AGUSTINA                                            P00000000000NNNNNNNNNNNNNNNNNNNNNNNNNNNNNNNNNNNNNNNNNNNNNNNNNNNNNNNNNNNNP00000000000NNNNNNNNNNNNNNNNNNNNNNNNNNNNNNNNNNNNNNNNNNNNNNNNNNNNNNNNNNNNP00000000000NNNNNNNNNNNNNNNNNNNNNNNNNNNNNNNNNNNNNNNNNNNNNNNNNNNNNNNNNNNN20190514000000001
Bloque: 246362930070153830004021812120                    CACaja de Ahorro      S$         007BANCO DE GALICIA               27246362934MAIDANA  GRISELDA ANTONIA RAMONA                            P00000000000NNNNNNNNNNNNNNNNNNNNNNNNNNNNNNNNNNNNNNNNNNNNNNNNNNNNNNNNNNNNP00000000000NNNNNNNNNNNNNNNNNNNNNNNNNNNNNNNNNNNNNNNNNNNNNNNNNNNNNNNNNNNNP00000000000NNNNNNNNNNNNNNNNNNNNNNNNNNNNNNNNNNNNNNNNNNNNNNNNNNNNNNNNNNNN20200424000000001
Bloque: 176673660340218608218028887002                    CACaja de Ahorro      S$         034BANCO PATAGONIA                20176673665BARRIOS, MARIO HUGO /BUSANO, MONICA ANDRE/                  P00000000000NNNNNNNNNNNNNNNNNNNNNNNNNNNNNNNNNNNNNNNNNNNNNNNNNNNNNNNNNNNNP00000000000NNNNNNNNNNNNNNNNNNNNNNNNNNNNNNNNNNNNNNNNNNNNNNNNNNNNNNNNNNNNP00000000000NNNNNNNNNNNNNNNNNNNNNNNNNNNNNNNNNNNNNNNNNNNNNNNNNNNNNNNNNNNN20211207000000001
Bloque: 273743760720504088000035413136                    CCCuenta Corriente    S$         072BANCO SANTANDER RIO            20273743767COSTA LUCAS CARLOS                                          P00000000000NNNNNNNNNNNNNNNNNNNNNNNNNNNNNNNNNNNNNNNNNNNNNNNNNNNNNNNNNNNNP00000000000NNNNNNNNNNNNNNNNNNNNNNNNNNNNNNNNNNNNNNNNNNNNNNNNNNNNNNNNNNNNP00000000000NNNNNNNNNNNNNNNNNNNNNNNNNNNNNNNNNNNNNNNNNNNNNNNNNNNNNNNNNNNN20190722000000001
Bloque: 177031311910385755138500502385                    CACaja de Ahorro      S$         191BANCO CREDICOOP                27177031319FILOMENI MARIA LAURA                                        P00000000000NNNNNNNNNNNNNNNNNNNNNNNNNNNNNNNNNNNNNNNNNNNNNNNNNNNNNNNNNNNNP00000000000NNNNNNNNNNNNNNNNNNNNNNNNNNNNNNNNNNNNNNNNNNNNNNNNNNNNNNNNNNNNP00000000000NNNNNNNNNNNNNNNNNNNNNNNNNNNNNNNNNNNNNNNNNNNNNNNNNNNNNNNNNNNN20221130000000001
Bloque: 310274370720378588000032308440                    CCCuenta Corriente    S$         072BANCO SANTANDER RIO            20310274373MAGALLAN CARLOS DANIEL                                      P00000000000NNNNNNNNNNNNNNNNNNNNNNNNNNNNNNNNNNNNNNNNNNNNNNNNNNNNNNNNNNNNP00000000000NNNNNNNNNNNNNNNNNNNNNNNNNNNNNNNNNNNNNNNNNNNNNNNNNNNNNNNNNNNNP00000000000NNNNNNNNNNNNNNNNNNNNNNNNNNNNNNNNNNNNNNNNNNNNNNNNNNNNNNNNNNNN20190513000000001
Bloque: 337511030720199488000036741904                    CCCuenta Corriente    S$         072BANCO SANTANDER RIO            20337511032POMA RODRIGO                                                P00000000000NNNNNNNNNNNNNNNNNNNNNNNNNNNNNNNNNNNNNNNNNNNNNNNNNNNNNNNNNNNNP00000000000NNNNNNNNNNNNNNNNNNNNNNNNNNNNNNNNNNNNNNNNNNNNNNNNNNNNNNNNNNNNP00000000000NNNNNNNNNNNNNNNNNNNNNNNNNNNNNNNNNNNNNNNNNNNNNNNNNNNNNNNNNNNN20190513000000001
Bloque: 368036140110433630043315695579                    CACaja de Ahorro      S$         011BCO. NACION ARGENTINA          27368036140CARRIZO SOFIA DANIELA                                       P00000000000NNNNNNNNNNNNNNNNNNNNNNNNNNNNNNNNNNNNNNNNNNNNNNNNNNNNNNNNNNNNP00000000000NNNNNNNNNNNNNNNNNNNNNNNNNNNNNNNNNNNNNNNNNNNNNNNNNNNNNNNNNNNNP00000000000NNNNNNNNNNNNNNNNNNNNNNNNNNNNNNNNNNNNNNNNNNNNNNNNNNNNNNNNNNNN20180301000000001
Bloque: 261116181500010700006062038364                    CACaja de Ahorro      S$         150HSBC BANK ARG. S.A             20344253022SANDOVAL, FRANCISCO RAMON/NAVARRO, ROXANA BEATRIZ/          P00000000000NNNNNNNNNNNNNNNNNNNNNNNNNNNNNNNNNNNNNNNNNNNNNNNNNNNNNNNNNNNNP00000000000NNNNNNNNNNNNNNNNNNNNNNNNNNNNNNNNNNNNNNNNNNNNNNNNNNNNNNNNNNNNP00000000000NNNNNNNNNNNNNNNNNNNNNNNNNNNNNNNNNNNNNNNNNNNNNNNNNNNNNNNNNNNN20220227000000001
Bloque: 425012572850600140001036244619                    CACaja de Ahorro      S$         285BANCO MACRO                    20425012577ALBO RICARDO DAVID                                          P00000000000NNNNNNNNNNNNNNNNNNNNNNNNNNNNNNNNNNNNNNNNNNNNNNNNNNNNNNNNNNNNP00000000000NNNNNNNNNNNNNNNNNNNNNNNNNNNNNNNNNNNNNNNNNNNNNNNNNNNNNNNNNNNNP00000000000NNNNNNNNNNNNNNNNNNNNNNNNNNNNNNNNNNNNNNNNNNNNNNNNNNNNNNNNNNNN20210915000000001
Bloque: 285287442850590940095066547808                    CACaja de Ahorro      S$         285BANCO MACRO                    20285287449MAMONDE JUAN FLORENCIO                                      P00000000000NNNNNNNNNNNNNNNNNNNNNNNNNNNNNNNNNNNNNNNNNNNNNNNNNNNNNNNNNNNNP00000000000NNNNNNNNNNNNNNNNNNNNNNNNNNNNNNNNNNNNNNNNNNNNNNNNNNNNNNNNNNNNP00000000000NNNNNNNNNNNNNNNNNNNNNNNNNNNNNNNNNNNNNNNNNNNNNNNNNNNNNNNNNNNN20190514000000001
Bloque: 246815600270101720017766800014                    CACaja de Ahorro      S$         027BANCO SUPERVIELLE              27246815602ROMERO CASTRO CECILIA DEOLINDA                              P00000000000NNNNNNNNNNNNNNNNNNNNNNNNNNNNNNNNNNNNNNNNNNNNNNNNNNNNNNNNNNNNP00000000000NNNNNNNNNNNNNNNNNNNNNNNNNNNNNNNNNNNNNNNNNNNNNNNNNNNNNNNNNNNNP00000000000NNNNNNNNNNNNNNNNNNNNNNNNNNNNNNNNNNNNNNNNNNNNNNNNNNNNNNNNNNNN20190515000000001
Bloque: 169930250140999803200062616204                    CACaja de Ahorro      S$         014BANCO PROVINCIA BS.AS.         20169930253RUBEN ARTURO,BENEGAS                                        P00000000000NNNNNNNNNNNNNNNNNNNNNNNNNNNNNNNNNNNNNNNNNNNNNNNNNNNNNNNNNNNNP00000000000NNNNNNNNNNNNNNNNNNNNNNNNNNNNNNNNNNNNNNNNNNNNNNNNNNNNNNNNNNNNP00000000000NNNNNNNNNNNNNNNNNNNNNNNNNNNNNNNNNNNNNNNNNNNNNNNNNNNNNNNNNNNN20180702000000001
Bloque: 127360050720118588000036093586                    CCCuenta Corriente    S$         072BANCO SANTANDER RIO            20127360058DELGADO CARLOS ANDRES                                       P00000000000NNNNNNNNNNNNNNNNNNNNNNNNNNNNNNNNNNNNNNNNNNNNNNNNNNNNNNNNNNNNP00000000000NNNNNNNNNNNNNNNNNNNNNNNNNNNNNNNNNNNNNNNNNNNNNNNNNNNNNNNNNNNNP00000000000NNNNNNNNNNNNNNNNNNNNNNNNNNNNNNNNNNNNNNNNNNNNNNNNNNNNNNNNNNNN20190515000000001
Bloque: 184028920200392211000011864394CANELA.COSA.CUENCA  CACAJA DE AHORRO      SS         INKBCO PCIA DE CORDOBA SA        F27184028927MARIA INES BUSTOS                                           P00000000000NNNNNNNNNNNNNNNNNNNNNNNNNNNNNNNNNNNNNNNNNNNNNNNNNNNNNNNNNNNNP00000000000NNNNNNNNNNNNNNNNNNNNNNNNNNNNNNNNNNNNNNNNNNNNNNNNNNNNNNNNNNNNP00000000000NNNNNNNNNNNNNNNNNNNNNNNNNNNNNNNNNNNNNNNNNNNNNNNNNNNNNNNNNNNN20190513000000001
Bloque: 292652280150510801000112026560                    CACaja de Ahorro      S$         015ICBC                           20292652284BASILE JAVIER ALEJAND                                       P00000000000NNNNNNNNNNNNNNNNNNNNNNNNNNNNNNNNNNNNNNNNNNNNNNNNNNNNNNNNNNNNP00000000000NNNNNNNNNNNNNNNNNNNNNNNNNNNNNNNNNNNNNNNNNNNNNNNNNNNNNNNNNNNNP00000000000NNNNNNNNNNNNNNNNNNNNNNNNNNNNNNNNNNNNNNNNNNNNNNNNNNNNNNNNNNNN20190515000000001
Bloque: 387059820150917901000116326697                    CACaja de Ahorro      S$         015ICBC                           27387059828MUNOZ AGOSTINA MARIA                                        P00000000000NNNNNNNNNNNNNNNNNNNNNNNNNNNNNNNNNNNNNNNNNNNNNNNNNNNNNNNNNNNNP00000000000NNNNNNNNNNNNNNNNNNNNNNNNNNNNNNNNNNNNNNNNNNNNNNNNNNNNNNNNNNNNP00000000000NNNNNNNNNNNNNNNNNNNNNNNNNNNNNNNNNNNNNNNNNNNNNNNNNNNNNNNNNNNN20190727000000001
Bloque: 277851420110285930028513236029                    CACaja de Ahorro      S$         011BCO. NACION ARGENTINA          20277851424GELARDI DANIEL                                              P00000000000NNNNNNNNNNNNNNNNNNNNNNNNNNNNNNNNNNNNNNNNNNNNNNNNNNNNNNNNNNNNP00000000000NNNNNNNNNNNNNNNNNNNNNNNNNNNNNNNNNNNNNNNNNNNNNNNNNNNNNNNNNNNNP00000000000NNNNNNNNNNNNNNNNNNNNNNNNNNNNNNNNNNNNNNNNNNNNNNNNNNNNNNNNNNNN20190513000000001
Bloque: 392321730110023530002306915001Tivi36              CACaja de Ahorro      S$         011BCO. NACION ARGENTINA          27392321735SEGUNDO SILVINA ELIZAB                                      P00000000000NNNNNNNNNNNNNNNNNNNNNNNNNNNNNNNNNNNNNNNNNNNNNNNNNNNNNNNNNNNNP00000000000NNNNNNNNNNNNNNNNNNNNNNNNNNNNNNNNNNNNNNNNNNNNNNNNNNNNNNNNNNNNP00000000000NNNNNNNNNNNNNNNNNNNNNNNNNNNNNNNNNNNNNNNNNNNNNNNNNNNNNNNNNNNN20180502000000001
Bloque: 284745091910494255149403391617                    CACaja de Ahorro      S$         191BANCO CREDICOOP                20284745095BERROTARAN FRANCO RODRIGO                                   P00000000000NNNNNNNNNNNNNNNNNNNNNNNNNNNNNNNNNNNNNNNNNNNNNNNNNNNNNNNNNNNNP00000000000NNNNNNNNNNNNNNNNNNNNNNNNNNNNNNNNNNNNNNNNNNNNNNNNNNNNNNNNNNNNP00000000000NNNNNNNNNNNNNNNNNNNNNNNNNNNNNNNNNNNNNNNNNNNNNNNNNNNNNNNNNNNN20190515000000001
Bloque: 393758980070091730004040999505                    CACaja de Ahorro      S$         007BANCO DE GALICIA               20393758989MORRONE NICOLAS EZEQUIEL                                    P00000000000NNNNNNNNNNNNNNNNNNNNNNNNNNNNNNNNNNNNNNNNNNNNNNNNNNNNNNNNNNNNP00000000000NNNNNNNNNNNNNNNNNNNNNNNNNNNNNNNNNNNNNNNNNNNNNNNNNNNNNNNNNNNNP00000000000NNNNNNNNNNNNNNNNNNNNNNNNNNNNNNNNNNNNNNNNNNNNNNNNNNNNNNNNNNNN20190513000000001
Bloque: 361645000070107130004158931884                    CACaja de Ahorro      S$         007BANCO DE GALICIA               27361645001ALCARAZ ROLON PATRICIA                                      P00000000000NNNNNNNNNNNNNNNNNNNNNNNNNNNNNNNNNNNNNNNNNNNNNNNNNNNNNNNNNNNNP00000000000NNNNNNNNNNNNNNNNNNNNNNNNNNNNNNNNNNNNNNNNNNNNNNNNNNNNNNNNNNNNP00000000000NNNNNNNNNNNNNNNNNNNNNNNNNNNNNNNNNNNNNNNNNNNNNNNNNNNNNNNNNNNN20190513000000001
Bloque: 281780110720477188000032845754                    CCCuenta Corriente    S$         072SANTANDER                      20281780116CASTILLO RAUL ALBERTO                                       P00000000000NNNNNNNNNNNNNNNNNNNNNNNNNNNNNNNNNNNNNNNNNNNNNNNNNNNNNNNNNNNNP00000000000NNNNNNNNNNNNNNNNNNNNNNNNNNNNNNNNNNNNNNNNNNNNNNNNNNNNNNNNNNNNP00000000000NNNNNNNNNNNNNNNNNNNNNNNNNNNNNNNNNNNNNNNNNNNNNNNNNNNNNNNNNNNN20200502000000001
Bloque: 204548170440007340000180291641                    CACaja de Ahorro      S$         044BANCO HIPOTECARIO S.A.         27204548175QUIROZ AGUILAR GILDA LUZ/CUELLO GABRIEL ERNESTO             P00000000000NNNNNNNNNNNNNNNNNNNNNNNNNNNNNNNNNNNNNNNNNNNNNNNNNNNNNNNNNNNNP00000000000NNNNNNNNNNNNNNNNNNNNNNNNNNNNNNNNNNNNNNNNNNNNNNNNNNNNNNNNNNNNP00000000000NNNNNNNNNNNNNNNNNNNNNNNNNNNNNNNNNNNNNNNNNNNNNNNNNNNNNNNNNNNN20210118000000001
Bloque: 401331370170007740000003902257                    CACaja de Ahorro      S$         017BBVA FRANCES                   27401331374SALTO     AGUSTINA                                          P00000000000NNNNNNNNNNNNNNNNNNNNNNNNNNNNNNNNNNNNNNNNNNNNNNNNNNNNNNNNNNNNP00000000000NNNNNNNNNNNNNNNNNNNNNNNNNNNNNNNNNNNNNNNNNNNNNNNNNNNNNNNNNNNNP00000000000NNNNNNNNNNNNNNNNNNNNNNNNNNNNNNNNNNNNNNNNNNNNNNNNNNNNNNNNNNNN20200516000000001
Bloque: 329024510340250608122010344003                    CACaja de Ahorro      S$         034BANCO PATAGONIA                20329024513SAEZ, CARRASCO OMAR /                                       P00000000000NNNNNNNNNNNNNNNNNNNNNNNNNNNNNNNNNNNNNNNNNNNNNNNNNNNNNNNNNNNNP00000000000NNNNNNNNNNNNNNNNNNNNNNNNNNNNNNNNNNNNNNNNNNNNNNNNNNNNNNNNNNNNP00000000000NNNNNNNNNNNNNNNNNNNNNNNNNNNNNNNNNNNNNNNNNNNNNNNNNNNNNNNNNNNN20180205000000001
Bloque: 143081323150000302000002657022                    CACaja de Ahorro      S$         315BCO. PROV. FORMOSA             27143081325SANABRIA AMERICA NATALIA                                    P00000000000NNNNNNNNNNNNNNNNNNNNNNNNNNNNNNNNNNNNNNNNNNNNNNNNNNNNNNNNNNNNP00000000000NNNNNNNNNNNNNNNNNNNNNNNNNNNNNNNNNNNNNNNNNNNNNNNNNNNNNNNNNNNNP00000000000NNNNNNNNNNNNNNNNNNNNNNNNNNNNNNNNNNNNNNNNNNNNNNNNNNNNNNNNNNNN20190520000000001
Bloque: 176261340070355830004011073663                    CACaja de Ahorro      S$         007BANCO DE GALICIA               20176261340GONZALEZ DEL PINO LUCAS                                     P00000000000NNNNNNNNNNNNNNNNNNNNNNNNNNNNNNNNNNNNNNNNNNNNNNNNNNNNNNNNNNNNP00000000000NNNNNNNNNNNNNNNNNNNNNNNNNNNNNNNNNNNNNNNNNNNNNNNNNNNNNNNNNNNNP00000000000NNNNNNNNNNNNNNNNNNNNNNNNNNNNNNNNNNNNNNNNNNNNNNNNNNNNNNNNNNNN20210410000000001
Bloque: 350113812850001040094873285758                    CACaja de Ahorro      S$         285BANCO MACRO                    23350113819LAUTHARTE ADILSON RENEE                                     P00000000000NNNNNNNNNNNNNNNNNNNNNNNNNNNNNNNNNNNNNNNNNNNNNNNNNNNNNNNNNNNNP00000000000NNNNNNNNNNNNNNNNNNNNNNNNNNNNNNNNNNNNNNNNNNNNNNNNNNNNNNNNNNNNP00000000000NNNNNNNNNNNNNNNNNNNNNNNNNNNNNNNNNNNNNNNNNNNNNNNNNNNNNNNNNNNN20190514000000001
Bloque: 185781160170999940000028265285                    CACaja de Ahorro      S$         017BBVA FRANCES                   20185781160PAILLACAR HORACIO CL                                        P00000000000NNNNNNNNNNNNNNNNNNNNNNNNNNNNNNNNNNNNNNNNNNNNNNNNNNNNNNNNNNNNP00000000000NNNNNNNNNNNNNNNNNNNNNNNNNNNNNNNNNNNNNNNNNNNNNNNNNNNNNNNNNNNNP00000000000NNNNNNNNNNNNNNNNNNNNNNNNNNNNNNNNNNNNNNNNNNNNNNNNNNNNNNNNNNNN20190515000000001
Bloque: 337268180170325040000046349938                    CACaja de Ahorro      S$         017BBVA FRANCES                   20337268189ARCE      MAXIMILIAN                                        P00000000000NNNNNNNNNNNNNNNNNNNNNNNNNNNNNNNNNNNNNNNNNNNNNNNNNNNNNNNNNNNNP00000000000NNNNNNNNNNNNNNNNNNNNNNNNNNNNNNNNNNNNNNNNNNNNNNNNNNNNNNNNNNNNP00000000000NNNNNNNNNNNNNNNNNNNNNNNNNNNNNNNNNNNNNNNNNNNNNNNNNNNNNNNNNNNN20191007000000001
Bloque: 251640940140023603506854396205                    CACaja de Ahorro      S$         014BANCO PROVINCIA BS.AS.         27251640942MARGARITA SUSANA,FLEITAS                                    P00000000000NNNNNNNNNNNNNNNNNNNNNNNNNNNNNNNNNNNNNNNNNNNNNNNNNNNNNNNNNNNNP00000000000NNNNNNNNNNNNNNNNNNNNNNNNNNNNNNNNNNNNNNNNNNNNNNNNNNNNNNNNNNNNP00000000000NNNNNNNNNNNNNNNNNNNNNNNNNNNNNNNNNNNNNNNNNNNNNNNNNNNNNNNNNNNN20190703000000001
Bloque: 188183030970042055002860980032                    CACaja de Ahorro      S$         097BANCO NEUQUEN                  23188183034UGARTE FLORES MARISOL DEL CARM                              P00000000000NNNNNNNNNNNNNNNNNNNNNNNNNNNNNNNNNNNNNNNNNNNNNNNNNNNNNNNNNNNNP00000000000NNNNNNNNNNNNNNNNNNNNNNNNNNNNNNNNNNNNNNNNNNNNNNNNNNNNNNNNNNNNP00000000000NNNNNNNNNNNNNNNNNNNNNNNNNNNNNNNNNNNNNNNNNNNNNNNNNNNNNNNNNNNN20190609000000001
Bloque: 238601300110221730022191575779PIPA.PAPA.LETRA     CACaja de Ahorro      S$         011BCO. NACION ARGENTINA          20238601305CABRAL SILVIO NORBERTO                                      P00000000000NNNNNNNNNNNNNNNNNNNNNNNNNNNNNNNNNNNNNNNNNNNNNNNNNNNNNNNNNNNNP00000000000NNNNNNNNNNNNNNNNNNNNNNNNNNNNNNNNNNNNNNNNNNNNNNNNNNNNNNNNNNNNP00000000000NNNNNNNNNNNNNNNNNNNNNNNNNNNNNNNNNNNNNNNNNNNNNNNNNNNNNNNNNNNN20180502000000001
Bloque: 146068103110030211000029198067                    CACaja de Ahorro      S$         311NUEVO BANCO DEL CHACO          20146068104HAYES CARLOS GUSTAVO                                        P00000000000NNNNNNNNNNNNNNNNNNNNNNNNNNNNNNNNNNNNNNNNNNNNNNNNNNNNNNNNNNNNP00000000000NNNNNNNNNNNNNNNNNNNNNNNNNNNNNNNNNNNNNNNNNNNNNNNNNNNNNNNNNNNNP00000000000NNNNNNNNNNNNNNNNNNNNNNNNNNNNNNNNNNNNNNNNNNNNNNNNNNNNNNNNNNNN20190514000000001
Bloque: 177335650110432930043217180001                    CACAJA DE AHORRO      SS         INKBCO. NACION ARGENTINA         F20177335658Marcelo Radevich                                            P00000000000NNNNNNNNNNNNNNNNNNNNNNNNNNNNNNNNNNNNNNNNNNNNNNNNNNNNNNNNNNNNP00000000000NNNNNNNNNNNNNNNNNNNNNNNNNNNNNNNNNNNNNNNNNNNNNNNNNNNNNNNNNNNNP00000000000NNNNNNNNNNNNNNNNNNNNNNNNNNNNNNNNNNNNNNNNNNNNNNNNNNNNNNNNNNNN20190514000000001
Bloque: 362171530140323503420057818507                    CACaja de Ahorro      S$         014BANCO PROVINCIA BS.AS.         23362171539LEANDRO OSCAR,ARAMBULO                                      P00000000000NNNNNNNNNNNNNNNNNNNNNNNNNNNNNNNNNNNNNNNNNNNNNNNNNNNNNNNNNNNNP00000000000NNNNNNNNNNNNNNNNNNNNNNNNNNNNNNNNNNNNNNNNNNNNNNNNNNNNNNNNNNNNP00000000000NNNNNNNNNNNNNNNNNNNNNNNNNNNNNNNNNNNNNNNNNNNNNNNNNNNNNNNNNNNN20190514000000001
Bloque: 301961631910089655108901090921                    CACaja de Ahorro      S$         191BANCO CREDICOOP                23301961634ZORROZUA CANET GABRIELA MARIEL                              P00000000000NNNNNNNNNNNNNNNNNNNNNNNNNNNNNNNNNNNNNNNNNNNNNNNNNNNNNNNNNNNNP00000000000NNNNNNNNNNNNNNNNNNNNNNNNNNNNNNNNNNNNNNNNNNNNNNNNNNNNNNNNNNNNP00000000000NNNNNNNNNNNNNNNNNNNNNNNNNNNNNNNNNNNNNNNNNNNNNNNNNNNNNNNNNNNN20190515000000001
Bloque: 119417420940099370007021160013                    CACAJA DE AHORRO      SS         INKBANCO CORRIENTES              F27119417428Lucia Fernandez                                             P00000000000NNNNNNNNNNNNNNNNNNNNNNNNNNNNNNNNNNNNNNNNNNNNNNNNNNNNNNNNNNNNP00000000000NNNNNNNNNNNNNNNNNNNNNNNNNNNNNNNNNNNNNNNNNNNNNNNNNNNNNNNNNNNNP00000000000NNNNNNNNNNNNNNNNNNNNNNNNNNNNNNNNNNNNNNNNNNNNNNNNNNNNNNNNNNNN20210303000000001
Bloque: 265862540170071840000036348628                    CACaja de Ahorro      S$         017BBVA FRANCES                   20265862544CORONEL   JOSE LUIS                                         P00000000000NNNNNNNNNNNNNNNNNNNNNNNNNNNNNNNNNNNNNNNNNNNNNNNNNNNNNNNNNNNNP00000000000NNNNNNNNNNNNNNNNNNNNNNNNNNNNNNNNNNNNNNNNNNNNNNNNNNNNNNNNNNNNP00000000000NNNNNNNNNNNNNNNNNNNNNNNNNNNNNNNNNNNNNNNNNNNNNNNNNNNNNNNNNNNN20200811000000001
Bloque: 369369560070172930004041475185                    CACaja de Ahorro      S$         007BANCO DE GALICIA               27369369569ACOSTA MAGALI                                               P00000000000NNNNNNNNNNNNNNNNNNNNNNNNNNNNNNNNNNNNNNNNNNNNNNNNNNNNNNNNNNNNP00000000000NNNNNNNNNNNNNNNNNNNNNNNNNNNNNNNNNNNNNNNNNNNNNNNNNNNNNNNNNNNNP00000000000NNNNNNNNNNNNNNNNNNNNNNNNNNNNNNNNNNNNNNNNNNNNNNNNNNNNNNNNNNNN20180702000000001
Bloque: 323049030110426830042607615879                    CACaja de Ahorro      S$         011BCO. NACION ARGENTINA          20323049034NU EZ GUSTAVO MARCELO                                       P00000000000NNNNNNNNNNNNNNNNNNNNNNNNNNNNNNNNNNNNNNNNNNNNNNNNNNNNNNNNNNNNP00000000000NNNNNNNNNNNNNNNNNNNNNNNNNNNNNNNNNNNNNNNNNNNNNNNNNNNNNNNNNNNNP00000000000NNNNNNNNNNNNNNNNNNNNNNNNNNNNNNNNNNNNNNNNNNNNNNNNNNNNNNNNNNNN20190705000000001
Bloque: 347468630070222720000003515217                    CCCuenta Corriente    S$         007BANCO DE GALICIA               20347468631FERNANDEZ  EBER JONATAN                                     P00000000000NNNNNNNNNNNNNNNNNNNNNNNNNNNNNNNNNNNNNNNNNNNNNNNNNNNNNNNNNNNNP00000000000NNNNNNNNNNNNNNNNNNNNNNNNNNNNNNNNNNNNNNNNNNNNNNNNNNNNNNNNNNNNP00000000000NNNNNNNNNNNNNNNNNNNNNNNNNNNNNNNNNNNNNNNNNNNNNNNNNNNNNNNNNNNN20190513000000001
Bloque: 268518370110284230028412037547                    CACaja de Ahorro      S$         011BCO. NACION ARGENTINA          20268518372PENAYO VICTOR DANIEL                                        P00000000000NNNNNNNNNNNNNNNNNNNNNNNNNNNNNNNNNNNNNNNNNNNNNNNNNNNNNNNNNNNNP00000000000NNNNNNNNNNNNNNNNNNNNNNNNNNNNNNNNNNNNNNNNNNNNNNNNNNNNNNNNNNNNP00000000000NNNNNNNNNNNNNNNNNNNNNNNNNNNNNNNNNNNNNNNNNNNNNNNNNNNNNNNNNNNN20180604000000001
Bloque: 264536800720374788000035958468                    CCCuenta Corriente    S$         072BANCO SANTANDER RIO            23264536804VILLAFA#E CLAUDIA ALICIA                                    P00000000000NNNNNNNNNNNNNNNNNNNNNNNNNNNNNNNNNNNNNNNNNNNNNNNNNNNNNNNNNNNNP00000000000NNNNNNNNNNNNNNNNNNNNNNNNNNNNNNNNNNNNNNNNNNNNNNNNNNNNNNNNNNNNP00000000000NNNNNNNNNNNNNNNNNNNNNNNNNNNNNNNNNNNNNNNNNNNNNNNNNNNNNNNNNNNN20190514000000001
Bloque: 355520690170237040000007093306                    CACaja de Ahorro      S$         017BBVA FRANCES                   27355520698CARMONA   TATIANA ED                                        P00000000000NNNNNNNNNNNNNNNNNNNNNNNNNNNNNNNNNNNNNNNNNNNNNNNNNNNNNNNNNNNNP00000000000NNNNNNNNNNNNNNNNNNNNNNNNNNNNNNNNNNNNNNNNNNNNNNNNNNNNNNNNNNNNP00000000000NNNNNNNNNNNNNNNNNNNNNNNNNNNNNNNNNNNNNNNNNNNNNNNNNNNNNNNNNNNN20190514000000001
Bloque: 356501800720156788000038204254                    CCCuenta Corriente    S$         072SANTANDER                      20356501803RODRIGUEZ ROBERTO RAUL                                      P00000000000NNNNNNNNNNNNNNNNNNNNNNNNNNNNNNNNNNNNNNNNNNNNNNNNNNNNNNNNNNNNP00000000000NNNNNNNNNNNNNNNNNNNNNNNNNNNNNNNNNNNNNNNNNNNNNNNNNNNNNNNNNNNNP00000000000NNNNNNNNNNNNNNNNNNNNNNNNNNNNNNNNNNNNNNNNNNNNNNNNNNNNNNNNNNNN20220328000000001
Bloque: 352234003110017311003203553052                    CACAJA DE AHORRO      SS         311NUEVO BANCO DEL CHACO         F27352234007Rodriguez Eva Lorena                                        P00000000000NNNNNNNNNNNNNNNNNNNNNNNNNNNNNNNNNNNNNNNNNNNNNNNNNNNNNNNNNNNNP00000000000NNNNNNNNNNNNNNNNNNNNNNNNNNNNNNNNNNNNNNNNNNNNNNNNNNNNNNNNNNNNP00000000000NNNNNNNNNNNNNNNNNNNNNNNNNNNNNNNNNNNNNNNNNNNNNNNNNNNNNNNNNNNN20220510000000001
Bloque: 355054980070112530004160778244                    CACaja de Ahorro      S$         007BANCO DE GALICIA               27355054980MUZOZ MARIA CARLA                                           P00000000000NNNNNNNNNNNNNNNNNNNNNNNNNNNNNNNNNNNNNNNNNNNNNNNNNNNNNNNNNNNNP00000000000NNNNNNNNNNNNNNNNNNNNNNNNNNNNNNNNNNNNNNNNNNNNNNNNNNNNNNNNNNNNP00000000000NNNNNNNNNNNNNNNNNNNNNNNNNNNNNNNNNNNNNNNNNNNNNNNNNNNNNNNNNNNN20200409000000001
Bloque: 332230151910232855123201805653                    CACaja de Ahorro      S$         191BANCO CREDICOOP                27332230153TAPIA PAOLA DEL VALLE                                       P00000000000NNNNNNNNNNNNNNNNNNNNNNNNNNNNNNNNNNNNNNNNNNNNNNNNNNNNNNNNNNNNP00000000000NNNNNNNNNNNNNNNNNNNNNNNNNNNNNNNNNNNNNNNNNNNNNNNNNNNNNNNNNNNNP00000000000NNNNNNNNNNNNNNNNNNNNNNNNNNNNNNNNNNNNNNNNNNNNNNNNNNNNNNNNNNNN20190514000000001
Bloque: 405515610070119430004172661741                    CACaja de Ahorro      S$         007BANCO DE GALICIA               20405515610GUARDO ALAN EMMANUEL                                        P00000000000NNNNNNNNNNNNNNNNNNNNNNNNNNNNNNNNNNNNNNNNNNNNNNNNNNNNNNNNNNNNP00000000000NNNNNNNNNNNNNNNNNNNNNNNNNNNNNNNNNNNNNNNNNNNNNNNNNNNNNNNNNNNNP00000000000NNNNNNNNNNNNNNNNNNNNNNNNNNNNNNNNNNNNNNNNNNNNNNNNNNNNNNNNNNNN20190514000000001
Bloque: 253686430150518401000145000627                    CACaja de Ahorro      S$         015ICBC                           20253686430CABRERA CRISTIAN FRAN                                       P00000000000NNNNNNNNNNNNNNNNNNNNNNNNNNNNNNNNNNNNNNNNNNNNNNNNNNNNNNNNNNNNP00000000000NNNNNNNNNNNNNNNNNNNNNNNNNNNNNNNNNNNNNNNNNNNNNNNNNNNNNNNNNNNNP00000000000NNNNNNNNNNNNNNNNNNNNNNNNNNNNNNNNNNNNNNNNNNNNNNNNNNNNNNNNNNNN20190513000000001
Bloque: 350815353110030211001149116074                    CACaja de Ahorro      S$         311NUEVO BANCO DEL CHACO          20350815350CARRUEGA ARIEL ALEJANDRO                                    P00000000000NNNNNNNNNNNNNNNNNNNNNNNNNNNNNNNNNNNNNNNNNNNNNNNNNNNNNNNNNNNNP00000000000NNNNNNNNNNNNNNNNNNNNNNNNNNNNNNNNNNNNNNNNNNNNNNNNNNNNNNNNNNNNP00000000000NNNNNNNNNNNNNNNNNNNNNNNNNNNNNNNNNNNNNNNNNNNNNNNNNNNNNNNNNNNN20190515000000001
Bloque: 930155960070347320000005436695                    CCCuenta Corriente    S$         007BANCO DE GALICIA               27930155964GARAY AMPUERO  PATRICIA INES                                P00000000000NNNNNNNNNNNNNNNNNNNNNNNNNNNNNNNNNNNNNNNNNNNNNNNNNNNNNNNNNNNNP00000000000NNNNNNNNNNNNNNNNNNNNNNNNNNNNNNNNNNNNNNNNNNNNNNNNNNNNNNNNNNNNP00000000000NNNNNNNNNNNNNNNNNNNNNNNNNNNNNNNNNNNNNNNNNNNNNNNNNNNNNNNNNNNN20221104000000001
Bloque: 202403200720150588000037178936                    CCCuenta Corriente    S$         072BANCO SANTANDER RIO            23202403204GOMEZ GLORIA DEL VALLE /NIEVA MAYRA ARASY                   P00000000000NNNNNNNNNNNNNNNNNNNNNNNNNNNNNNNNNNNNNNNNNNNNNNNNNNNNNNNNNNNNP00000000000NNNNNNNNNNNNNNNNNNNNNNNNNNNNNNNNNNNNNNNNNNNNNNNNNNNNNNNNNNNNP00000000000NNNNNNNNNNNNNNNNNNNNNNNNNNNNNNNNNNNNNNNNNNNNNNNNNNNNNNNNNNNN20190515000000001
Bloque: 265261570070232630004002026519                    CACaja de Ahorro      S$         007BANCO DE GALICIA               23265261574LUCIANA AGUILAR                                             P00000000000NNNNNNNNNNNNNNNNNNNNNNNNNNNNNNNNNNNNNNNNNNNNNNNNNNNNNNNNNNNNP00000000000NNNNNNNNNNNNNNNNNNNNNNNNNNNNNNNNNNNNNNNNNNNNNNNNNNNNNNNNNNNNP00000000000NNNNNNNNNNNNNNNNNNNNNNNNNNNNNNNNNNNNNNNNNNNNNNNNNNNNNNNNNNNN20190514000000001
Bloque: 353491490110018130001812121665                    CACaja de Ahorro      S$         011BCO. NACION ARGENTINA          27353491496MANDL MELANI HILEN                                          P00000000000NNNNNNNNNNNNNNNNNNNNNNNNNNNNNNNNNNNNNNNNNNNNNNNNNNNNNNNNNNNNP00000000000NNNNNNNNNNNNNNNNNNNNNNNNNNNNNNNNNNNNNNNNNNNNNNNNNNNNNNNNNNNNP00000000000NNNNNNNNNNNNNNNNNNNNNNNNNNNNNNNNNNNNNNNNNNNNNNNNNNNNNNNNNNNN20190515000000001
Bloque: 276987990110280430028012921851                    CACaja de Ahorro      S$         011BCO. NACION ARGENTINA          27276987998HERRERA ANDREA                                              P00000000000NNNNNNNNNNNNNNNNNNNNNNNNNNNNNNNNNNNNNNNNNNNNNNNNNNNNNNNNNNNNP00000000000NNNNNNNNNNNNNNNNNNNNNNNNNNNNNNNNNNNNNNNNNNNNNNNNNNNNNNNNNNNNP00000000000NNNNNNNNNNNNNNNNNNNNNNNNNNNNNNNNNNNNNNNNNNNNNNNNNNNNNNNNNNNN20190515000000001
Bloque: 343386862850679740095019411598                    CACaja de Ahorro      S$         285BANCO MACRO                    23343386869BARRAZA WALTER FABIAN                                       P00000000000NNNNNNNNNNNNNNNNNNNNNNNNNNNNNNNNNNNNNNNNNNNNNNNNNNNNNNNNNNNNP00000000000NNNNNNNNNNNNNNNNNNNNNNNNNNNNNNNNNNNNNNNNNNNNNNNNNNNNNNNNNNNNP00000000000NNNNNNNNNNNNNNNNNNNNNNNNNNNNNNNNNNNNNNNNNNNNNNNNNNNNNNNNNNNN20190514000000001
Bloque: 314381610070071930004054254704                    CACaja de Ahorro      S$         007BANCO DE GALICIA               27314381616MICHELINI MAYRA VANINA Y O CACERES SERGIO JAVIER            P00000000000NNNNNNNNNNNNNNNNNNNNNNNNNNNNNNNNNNNNNNNNNNNNNNNNNNNNNNNNNNNNP00000000000NNNNNNNNNNNNNNNNNNNNNNNNNNNNNNNNNNNNNNNNNNNNNNNNNNNNNNNNNNNNP00000000000NNNNNNNNNNNNNNNNNNNNNNNNNNNNNNNNNNNNNNNNNNNNNNNNNNNNNNNNNNNN20190603000000001
Bloque: 225078630200346511000030198908                    CACaja de Ahorro      S$         020BCO PCIA DE CORDOBA SA         27225078632MUSSO, SONIA MARIA                                          P00000000000NNNNNNNNNNNNNNNNNNNNNNNNNNNNNNNNNNNNNNNNNNNNNNNNNNNNNNNNNNNNP00000000000NNNNNNNNNNNNNNNNNNNNNNNNNNNNNNNNNNNNNNNNNNNNNNNNNNNNNNNNNNNNP00000000000NNNNNNNNNNNNNNNNNNNNNNNNNNNNNNNNNNNNNNNNNNNNNNNNNNNNNNNNNNNN20190513000000001
Bloque: 270209453860007205000041998606bigote.chita.pez    CCCuenta Corriente    S$         386NUEVO BANCO ENTRE RIOS         27270209454GOMEZ, MARIA JULIANA                                        P00000000000NNNNNNNNNNNNNNNNNNNNNNNNNNNNNNNNNNNNNNNNNNNNNNNNNNNNNNNNNNNNP00000000000NNNNNNNNNNNNNNNNNNNNNNNNNNNNNNNNNNNNNNNNNNNNNNNNNNNNNNNNNNNNP00000000000NNNNNNNNNNNNNNNNNNNNNNNNNNNNNNNNNNNNNNNNNNNNNNNNNNNNNNNNNNNN20180602000000001
Bloque: 373828180110553730055314380347                    CACaja de Ahorro      S$         011BCO. NACION ARGENTINA          27373828187FRIAS VANINA LUCRECIA                                       P00000000000NNNNNNNNNNNNNNNNNNNNNNNNNNNNNNNNNNNNNNNNNNNNNNNNNNNNNNNNNNNNP00000000000NNNNNNNNNNNNNNNNNNNNNNNNNNNNNNNNNNNNNNNNNNNNNNNNNNNNNNNNNNNNP00000000000NNNNNNNNNNNNNNNNNNNNNNNNNNNNNNNNNNNNNNNNNNNNNNNNNNNNNNNNNNNN20190628000000001
Bloque: 252020450200922711000012680894                    CACAJA DE AHORRO      SS         INKBCO PCIA DE CORDOBA SA        F23252020454Maria Deanquin                                              P00000000000NNNNNNNNNNNNNNNNNNNNNNNNNNNNNNNNNNNNNNNNNNNNNNNNNNNNNNNNNNNNP00000000000NNNNNNNNNNNNNNNNNNNNNNNNNNNNNNNNNNNNNNNNNNNNNNNNNNNNNNNNNNNNP00000000000NNNNNNNNNNNNNNNNNNNNNNNNNNNNNNNNNNNNNNNNNNNNNNNNNNNNNNNNNNNN20190723000000001
Bloque: 336252093150000302000005133174                    CACaja de Ahorro      S$         315BCO. PROV. FORMOSA             27336252097ZIESENISS CELESTE ANAHI                                     P00000000000NNNNNNNNNNNNNNNNNNNNNNNNNNNNNNNNNNNNNNNNNNNNNNNNNNNNNNNNNNNNP00000000000NNNNNNNNNNNNNNNNNNNNNNNNNNNNNNNNNNNNNNNNNNNNNNNNNNNNNNNNNNNNP00000000000NNNNNNNNNNNNNNNNNNNNNNNNNNNNNNNNNNNNNNNNNNNNNNNNNNNNNNNNNNNN20190331000000001
Bloque: 305750860070172930004024762668                    CACaja de Ahorro      S$         007BANCO DE GALICIA               27305750862PEREZ PEREYRA SOLEDAD                                       P00000000000NNNNNNNNNNNNNNNNNNNNNNNNNNNNNNNNNNNNNNNNNNNNNNNNNNNNNNNNNNNNP00000000000NNNNNNNNNNNNNNNNNNNNNNNNNNNNNNNNNNNNNNNNNNNNNNNNNNNNNNNNNNNNP00000000000NNNNNNNNNNNNNNNNNNNNNNNNNNNNNNNNNNNNNNNNNNNNNNNNNNNNNNNNNNNN20180702000000001
Bloque: 256986050720714588000035255422                    CCCuenta Corriente    S$         072BANCO SANTANDER RIO            27256986057COFRE SANDRA                                                P00000000000NNNNNNNNNNNNNNNNNNNNNNNNNNNNNNNNNNNNNNNNNNNNNNNNNNNNNNNNNNNNP00000000000NNNNNNNNNNNNNNNNNNNNNNNNNNNNNNNNNNNNNNNNNNNNNNNNNNNNNNNNNNNNP00000000000NNNNNNNNNNNNNNNNNNNNNNNNNNNNNNNNNNNNNNNNNNNNNNNNNNNNNNNNNNNN20190513000000001
Bloque: 281598153860028703000040394731                    CACAJA DE AHORRO      SS         INKNUEVO BANCO ENTRE RIOS        F20281598156Mauro Cuello                                                P00000000000NNNNNNNNNNNNNNNNNNNNNNNNNNNNNNNNNNNNNNNNNNNNNNNNNNNNNNNNNNNNP00000000000NNNNNNNNNNNNNNNNNNNNNNNNNNNNNNNNNNNNNNNNNNNNNNNNNNNNNNNNNNNNP00000000000NNNNNNNNNNNNNNNNNNNNNNNNNNNNNNNNNNNNNNNNNNNNNNNNNNNNNNNNNNNN20190514000000001
Bloque: 275206993860019505000040532131                    CCCUENTA CORRIENTE    SS         INKNUEVO BANCO ENTRE RIOS        F27275206992Carolina Vera                                               P00000000000NNNNNNNNNNNNNNNNNNNNNNNNNNNNNNNNNNNNNNNNNNNNNNNNNNNNNNNNNNNNP00000000000NNNNNNNNNNNNNNNNNNNNNNNNNNNNNNNNNNNNNNNNNNNNNNNNNNNNNNNNNNNNP00000000000NNNNNNNNNNNNNNNNNNNNNNNNNNNNNNNNNNNNNNNNNNNNNNNNNNNNNNNNNNNN20190513000000001
Bloque: 265295190110390630039082855115                    CACAJA DE AHORRO      SS         INKBCO. NACION ARGENTINA         F27265295199CLAUDIA ALEJANDRA FERNANDEZ                                 P00000000000NNNNNNNNNNNNNNNNNNNNNNNNNNNNNNNNNNNNNNNNNNNNNNNNNNNNNNNNNNNNP00000000000NNNNNNNNNNNNNNNNNNNNNNNNNNNNNNNNNNNNNNNNNNNNNNNNNNNNNNNNNNNNP00000000000NNNNNNNNNNNNNNNNNNNNNNNNNNNNNNNNNNNNNNNNNNNNNNNNNNNNNNNNNNNN20190612000000001
Bloque: 119173480070034430004018926144                    CACaja de Ahorro      S$         007BANCO DE GALICIA               20119173486MARTINEZ BUSTAMANTE ROBERTO ANIBAL                          P00000000000NNNNNNNNNNNNNNNNNNNNNNNNNNNNNNNNNNNNNNNNNNNNNNNNNNNNNNNNNNNNP00000000000NNNNNNNNNNNNNNNNNNNNNNNNNNNNNNNNNNNNNNNNNNNNNNNNNNNNNNNNNNNNP00000000000NNNNNNNNNNNNNNNNNNNNNNNNNNNNNNNNNNNNNNNNNNNNNNNNNNNNNNNNNNNN20190916000000001
Bloque: 259858230070116330004005055547                    CACaja de Ahorro      S$         007BANCO DE GALICIA               24259858239LLANOS JOSE LUIS                                            P00000000000NNNNNNNNNNNNNNNNNNNNNNNNNNNNNNNNNNNNNNNNNNNNNNNNNNNNNNNNNNNNP00000000000NNNNNNNNNNNNNNNNNNNNNNNNNNNNNNNNNNNNNNNNNNNNNNNNNNNNNNNNNNNNP00000000000NNNNNNNNNNNNNNNNNNNNNNNNNNNNNNNNNNNNNNNNNNNNNNNNNNNNNNNNNNNN20190514000000001
Bloque: 365000472850725740094891177518                    CACaja de Ahorro      S$         285BANCO MACRO                    20365000477OJEDA RAMON MATEO                                           P00000000000NNNNNNNNNNNNNNNNNNNNNNNNNNNNNNNNNNNNNNNNNNNNNNNNNNNNNNNNNNNNP00000000000NNNNNNNNNNNNNNNNNNNNNNNNNNNNNNNNNNNNNNNNNNNNNNNNNNNNNNNNNNNNP00000000000NNNNNNNNNNNNNNNNNNNNNNNNNNNNNNNNNNNNNNNNNNNNNNNNNNNNNNNNNNNN20190513000000001
Bloque: 342592740140023603506861352694                    CACaja de Ahorro      S$         014BANCO PROVINCIA BS.AS.         27342592746MAYRA ESTEFANIA,MONTIEL                                     P00000000000NNNNNNNNNNNNNNNNNNNNNNNNNNNNNNNNNNNNNNNNNNNNNNNNNNNNNNNNNNNNP00000000000NNNNNNNNNNNNNNNNNNNNNNNNNNNNNNNNNNNNNNNNNNNNNNNNNNNNNNNNNNNNP00000000000NNNNNNNNNNNNNNNNNNNNNNNNNNNNNNNNNNNNNNNNNNNNNNNNNNNNNNNNNNNN20220707000000001
Bloque: 262527150150501601000315422916                    CACaja de Ahorro      S$         015ICBC                           27262527153SERRANO NANCY MARIELA                                       P00000000000NNNNNNNNNNNNNNNNNNNNNNNNNNNNNNNNNNNNNNNNNNNNNNNNNNNNNNNNNNNNP00000000000NNNNNNNNNNNNNNNNNNNNNNNNNNNNNNNNNNNNNNNNNNNNNNNNNNNNNNNNNNNNP00000000000NNNNNNNNNNNNNNNNNNNNNNNNNNNNNNNNNNNNNNNNNNNNNNNNNNNNNNNNNNNN20200109000000001
Bloque: 345351460720114788000036810554PILETA.MARTE.LOGRO  CCCuenta Corriente    S$         072BANCO SANTANDER RIO            27345351464BROGLIO LUCRECIA CARINA                                     P00000000000NNNNNNNNNNNNNNNNNNNNNNNNNNNNNNNNNNNNNNNNNNNNNNNNNNNNNNNNNNNNP00000000000NNNNNNNNNNNNNNNNNNNNNNNNNNNNNNNNNNNNNNNNNNNNNNNNNNNNNNNNNNNNP00000000000NNNNNNNNNNNNNNNNNNNNNNNNNNNNNNNNNNNNNNNNNNNNNNNNNNNNNNNNNNNN20181130000000001
Bloque: 256114560340289608289001191007LILA.PAPA.PILA      CACaja de Ahorro      S$         034BANCO PATAGONIA                24256114565MORALES, PABLO DANIE/MU#OZ, MARIA LAURA  /                  P00000000000NNNNNNNNNNNNNNNNNNNNNNNNNNNNNNNNNNNNNNNNNNNNNNNNNNNNNNNNNNNNP00000000000NNNNNNNNNNNNNNNNNNNNNNNNNNNNNNNNNNNNNNNNNNNNNNNNNNNNNNNNNNNNP00000000000NNNNNNNNNNNNNNNNNNNNNNNNNNNNNNNNNNNNNNNNNNNNNNNNNNNNNNNNNNNN20190111000000001
Bloque: 202155080070097930004009449894                    CACaja de Ahorro      S$         007BANCO DE GALICIA               27202155087DAVID MARTA SUSANA                                          P00000000000NNNNNNNNNNNNNNNNNNNNNNNNNNNNNNNNNNNNNNNNNNNNNNNNNNNNNNNNNNNNP00000000000NNNNNNNNNNNNNNNNNNNNNNNNNNNNNNNNNNNNNNNNNNNNNNNNNNNNNNNNNNNNP00000000000NNNNNNNNNNNNNNNNNNNNNNNNNNNNNNNNNNNNNNNNNNNNNNNNNNNNNNNNNNNN20190515000000001
Bloque: 323376350070089430004090327284                    CACaja de Ahorro      S$         007BANCO DE GALICIA               27323376358BUETOW URIBURU ANA                                          P00000000000NNNNNNNNNNNNNNNNNNNNNNNNNNNNNNNNNNNNNNNNNNNNNNNNNNNNNNNNNNNNP00000000000NNNNNNNNNNNNNNNNNNNNNNNNNNNNNNNNNNNNNNNNNNNNNNNNNNNNNNNNNNNNP00000000000NNNNNNNNNNNNNNNNNNNNNNNNNNNNNNNNNNNNNNNNNNNNNNNNNNNNNNNNNNNN20190515000000001
Bloque: 305009070720216488000036779154                    CCCuenta Corriente    S$         072BANCO SANTANDER RIO            27305009070RICCA LUANA CECILIA                                         P00000000000NNNNNNNNNNNNNNNNNNNNNNNNNNNNNNNNNNNNNNNNNNNNNNNNNNNNNNNNNNNNP00000000000NNNNNNNNNNNNNNNNNNNNNNNNNNNNNNNNNNNNNNNNNNNNNNNNNNNNNNNNNNNNP00000000000NNNNNNNNNNNNNNNNNNNNNNNNNNNNNNNNNNNNNNNNNNNNNNNNNNNNNNNNNNNN20190514000000001
Bloque: 321461740070066530004044656408                    CACaja de Ahorro      S$         007BANCO DE GALICIA               27321461749ITURRE MONICA LILIANA                                       P00000000000NNNNNNNNNNNNNNNNNNNNNNNNNNNNNNNNNNNNNNNNNNNNNNNNNNNNNNNNNNNNP00000000000NNNNNNNNNNNNNNNNNNNNNNNNNNNNNNNNNNNNNNNNNNNNNNNNNNNNNNNNNNNNP00000000000NNNNNNNNNNNNNNNNNNNNNNNNNNNNNNNNNNNNNNNNNNNNNNNNNNNNNNNNNNNN20190514000000001
Bloque: 269759044480001121000272950011                    CACaja de Ahorro      S$         448FINANDINO                      27269759041TORRES  VIVIANA ELIZABETH                                   P00000000000NNNNNNNNNNNNNNNNNNNNNNNNNNNNNNNNNNNNNNNNNNNNNNNNNNNNNNNNNNNNP00000000000NNNNNNNNNNNNNNNNNNNNNNNNNNNNNNNNNNNNNNNNNNNNNNNNNNNNNNNNNNNNP00000000000NNNNNNNNNNNNNNNNNNNNNNNNNNNNNNNNNNNNNNNNNNNNNNNNNNNNNNNNNNNN20190515000000001
Bloque: 275566840140199403506753614783                    CACaja de Ahorro      S$         014BANCO PROVINCIA BS.AS.         27275566840VERONICA MARISOL,FERNANDEZ                                  P00000000000NNNNNNNNNNNNNNNNNNNNNNNNNNNNNNNNNNNNNNNNNNNNNNNNNNNNNNNNNNNNP00000000000NNNNNNNNNNNNNNNNNNNNNNNNNNNNNNNNNNNNNNNNNNNNNNNNNNNNNNNNNNNNP00000000000NNNNNNNNNNNNNNNNNNNNNNNNNNNNNNNNNNNNNNNNNNNNNNNNNNNNNNNNNNNN20210515000000001
Bloque: 288358070070335030004033728505                    CACaja de Ahorro      S$         007BANCO DE GALICIA               27288358074PEDERNERA  MARIA MACARENA                                   P00000000000NNNNNNNNNNNNNNNNNNNNNNNNNNNNNNNNNNNNNNNNNNNNNNNNNNNNNNNNNNNNP00000000000NNNNNNNNNNNNNNNNNNNNNNNNNNNNNNNNNNNNNNNNNNNNNNNNNNNNNNNNNNNNP00000000000NNNNNNNNNNNNNNNNNNNNNNNNNNNNNNNNNNNNNNNNNNNNNNNNNNNNNNNNNNNN20190514000000001
Bloque: 1675404507201444880000373964863579vacc            CCCuenta Corriente    S$         072BANCO SANTANDER RIO            20167540458VACCARO MONICA HAYDEE                                       P00000000000NNNNNNNNNNNNNNNNNNNNNNNNNNNNNNNNNNNNNNNNNNNNNNNNNNNNNNNNNNNNP00000000000NNNNNNNNNNNNNNNNNNNNNNNNNNNNNNNNNNNNNNNNNNNNNNNNNNNNNNNNNNNNP00000000000NNNNNNNNNNNNNNNNNNNNNNNNNNNNNNNNNNNNNNNNNNNNNNNNNNNNNNNNNNNN20180301000000001
Bloque: 318350050170327440000075464994                    CACaja de Ahorro      S$         017BBVA FRANCES                   27318350057ANIBAL    SOFIA NATA                                        P00000000000NNNNNNNNNNNNNNNNNNNNNNNNNNNNNNNNNNNNNNNNNNNNNNNNNNNNNNNNNNNNP00000000000NNNNNNNNNNNNNNNNNNNNNNNNNNNNNNNNNNNNNNNNNNNNNNNNNNNNNNNNNNNNP00000000000NNNNNNNNNNNNNNNNNNNNNNNNNNNNNNNNNNNNNNNNNNNNNNNNNNNNNNNNNNNN20190515000000001
Bloque: 336353620110514830051482564897                    CACAJA DE AHORRO      SS         INKBCO. NACION ARGENTINA         F23336353629Ramon Trindades                                             P00000000000NNNNNNNNNNNNNNNNNNNNNNNNNNNNNNNNNNNNNNNNNNNNNNNNNNNNNNNNNNNNP00000000000NNNNNNNNNNNNNNNNNNNNNNNNNNNNNNNNNNNNNNNNNNNNNNNNNNNNNNNNNNNNP00000000000NNNNNNNNNNNNNNNNNNNNNNNNNNNNNNNNNNNNNNNNNNNNNNNNNNNNNNNNNNNN20190515000000001
Bloque: 291142872850140240094865974338                    CACaja de Ahorro      S$         285BANCO MACRO                    27291142872CARRERA NATALIA DEL VALLE                                   P00000000000NNNNNNNNNNNNNNNNNNNNNNNNNNNNNNNNNNNNNNNNNNNNNNNNNNNNNNNNNNNNP00000000000NNNNNNNNNNNNNNNNNNNNNNNNNNNNNNNNNNNNNNNNNNNNNNNNNNNNNNNNNNNNP00000000000NNNNNNNNNNNNNNNNNNNNNNNNNNNNNNNNNNNNNNNNNNNNNNNNNNNNNNNNNNNN20180807000000001
Bloque: 331439200110826030082600919301                    CACaja de Ahorro      S$         011BCO. NACION ARGENTINA          20331439208OCAMPO JONATAN RODOLFO                                      P00000000000NNNNNNNNNNNNNNNNNNNNNNNNNNNNNNNNNNNNNNNNNNNNNNNNNNNNNNNNNNNNP00000000000NNNNNNNNNNNNNNNNNNNNNNNNNNNNNNNNNNNNNNNNNNNNNNNNNNNNNNNNNNNNP00000000000NNNNNNNNNNNNNNNNNNNNNNNNNNNNNNNNNNNNNNNNNNNNNNNNNNNNNNNNNNNN20211216000000001
Bloque: 286810950600000440080079959946                    CACaja de Ahorro      S$         060BANCO DEL TUCUMAN              27286810956PAOLANTONIO MARIA DE                                        P00000000000NNNNNNNNNNNNNNNNNNNNNNNNNNNNNNNNNNNNNNNNNNNNNNNNNNNNNNNNNNNNP00000000000NNNNNNNNNNNNNNNNNNNNNNNNNNNNNNNNNNNNNNNNNNNNNNNNNNNNNNNNNNNNP00000000000NNNNNNNNNNNNNNNNNNNNNNNNNNNNNNNNNNNNNNNNNNNNNNNNNNNNNNNNNNNN20190514000000001
Bloque: 354544350110428230042815890583Peon.pie.pampa      CACAJA DE AHORRO      SS         INKBCO. NACION ARGENTINA         F27354544356Andrea Mariel Olivieri                                      P00000000000NNNNNNNNNNNNNNNNNNNNNNNNNNNNNNNNNNNNNNNNNNNNNNNNNNNNNNNNNNNNP00000000000NNNNNNNNNNNNNNNNNNNNNNNNNNNNNNNNNNNNNNNNNNNNNNNNNNNNNNNNNNNNP00000000000NNNNNNNNNNNNNNNNNNNNNNNNNNNNNNNNNNNNNNNNNNNNNNNNNNNNNNNNNNNN20220109000000001
Bloque: 280716900070173630004015519581                    CACaja de Ahorro      S$         007BANCO DE GALICIA               20280716902BRUN CARLOS ALBERTO                                         P00000000000NNNNNNNNNNNNNNNNNNNNNNNNNNNNNNNNNNNNNNNNNNNNNNNNNNNNNNNNNNNNP00000000000NNNNNNNNNNNNNNNNNNNNNNNNNNNNNNNNNNNNNNNNNNNNNNNNNNNNNNNNNNNNP00000000000NNNNNNNNNNNNNNNNNNNNNNNNNNNNNNNNNNNNNNNNNNNNNNNNNNNNNNNNNNNN20190514000000001
Bloque: 044340020290019310000080812561                    CACaja de Ahorro      S$         029BANCO CIUDAD                   20044340020SAMBATARO JOSE/SAMBATARO LEONARDO FAVIO                     P00000000000NNNNNNNNNNNNNNNNNNNNNNNNNNNNNNNNNNNNNNNNNNNNNNNNNNNNNNNNNNNNP00000000000NNNNNNNNNNNNNNNNNNNNNNNNNNNNNNNNNNNNNNNNNNNNNNNNNNNNNNNNNNNNP00000000000NNNNNNNNNNNNNNNNNNNNNNNNNNNNNNNNNNNNNNNNNNNNNNNNNNNNNNNNNNNN20200420000000001
Bloque: 346293830970099455006668770028                    CACaja de Ahorro      S$         097BANCO NEUQUEN                  27346293832FUENTES WANDA PAMELA                                        P00000000000NNNNNNNNNNNNNNNNNNNNNNNNNNNNNNNNNNNNNNNNNNNNNNNNNNNNNNNNNNNNP00000000000NNNNNNNNNNNNNNNNNNNNNNNNNNNNNNNNNNNNNNNNNNNNNNNNNNNNNNNNNNNNP00000000000NNNNNNNNNNNNNNNNNNNNNNNNNNNNNNNNNNNNNNNNNNNNNNNNNNNNNNNNNNNN20190513000000001
Bloque: 327069690070173630004068568264AZUL.TERNA.MEDANO   CACAJA DE AHORRO      SS         LCABANCO DE GALICIA              F20327069692ENRIQUE DANIEL CORVERA                                      P00000000000NNNNNNNNNNNNNNNNNNNNNNNNNNNNNNNNNNNNNNNNNNNNNNNNNNNNNNNNNNNNP00000000000NNNNNNNNNNNNNNNNNNNNNNNNNNNNNNNNNNNNNNNNNNNNNNNNNNNNNNNNNNNNP00000000000NNNNNNNNNNNNNNNNNNNNNNNNNNNNNNNNNNNNNNNNNNNNNNNNNNNNNNNNNNNN20200827000000001
Bloque: 370764020140304403659953365972                    CACaja de Ahorro      S$         014BANCO PROVINCIA BS.AS.         27370764021RAMONA ROXANA ARACELLI,BAZAN                                P00000000000NNNNNNNNNNNNNNNNNNNNNNNNNNNNNNNNNNNNNNNNNNNNNNNNNNNNNNNNNNNNP00000000000NNNNNNNNNNNNNNNNNNNNNNNNNNNNNNNNNNNNNNNNNNNNNNNNNNNNNNNNNNNNP00000000000NNNNNNNNNNNNNNNNNNNNNNNNNNNNNNNNNNNNNNNNNNNNNNNNNNNNNNNNNNNN20190514000000001
Bloque: 280991910340230808230012497000                    CACaja de Ahorro      S$         034BANCO PATAGONIA                20280991911CHAVEZ, ALEXIS MANUE/                                       P00000000000NNNNNNNNNNNNNNNNNNNNNNNNNNNNNNNNNNNNNNNNNNNNNNNNNNNNNNNNNNNNP00000000000NNNNNNNNNNNNNNNNNNNNNNNNNNNNNNNNNNNNNNNNNNNNNNNNNNNNNNNNNNNNP00000000000NNNNNNNNNNNNNNNNNNNNNNNNNNNNNNNNNNNNNNNNNNNNNNNNNNNNNNNNNNNN20191112000000001
Bloque: 105421920720066388000036375086                    CCCuenta Corriente    S$         072BANCO SANTANDER RIO            20105421924REVUELTA SALVADOR FRANCISCO /BILBAO EMMA DEL VALLE          P00000000000NNNNNNNNNNNNNNNNNNNNNNNNNNNNNNNNNNNNNNNNNNNNNNNNNNNNNNNNNNNNP00000000000NNNNNNNNNNNNNNNNNNNNNNNNNNNNNNNNNNNNNNNNNNNNNNNNNNNNNNNNNNNNP00000000000NNNNNNNNNNNNNNNNNNNNNNNNNNNNNNNNNNNNNNNNNNNNNNNNNNNNNNNNNNNN20190513000000001
Bloque: 332357122850115040094825141758                    CACaja de Ahorro      S$         285BANCO MACRO                    27332357129ROJAS LORENA TERESITA                                       P00000000000NNNNNNNNNNNNNNNNNNNNNNNNNNNNNNNNNNNNNNNNNNNNNNNNNNNNNNNNNNNNP00000000000NNNNNNNNNNNNNNNNNNNNNNNNNNNNNNNNNNNNNNNNNNNNNNNNNNNNNNNNNNNNP00000000000NNNNNNNNNNNNNNNNNNNNNNNNNNNNNNNNNNNNNNNNNNNNNNNNNNNNNNNNNNNN20190514000000001
Bloque: 118079353860001005000046988235                    CCCuenta Corriente    S$         386NUEVO BANCO ENTRE RIOS         27118079359LEDESMA, MARIA MERCEDES VALERIA                             P00000000000NNNNNNNNNNNNNNNNNNNNNNNNNNNNNNNNNNNNNNNNNNNNNNNNNNNNNNNNNNNNP00000000000NNNNNNNNNNNNNNNNNNNNNNNNNNNNNNNNNNNNNNNNNNNNNNNNNNNNNNNNNNNNP00000000000NNNNNNNNNNNNNNNNNNNNNNNNNNNNNNNNNNNNNNNNNNNNNNNNNNNNNNNNNNNN20190513000000001
Bloque: 248007450720016888000030705168fabsgro75           CCCuenta Corriente    S$         072BANCO SANTANDER RIO            20248007452SGRO FABIAN ANTONIO                                         P00000000000NNNNNNNNNNNNNNNNNNNNNNNNNNNNNNNNNNNNNNNNNNNNNNNNNNNNNNNNNNNNP00000000000NNNNNNNNNNNNNNNNNNNNNNNNNNNNNNNNNNNNNNNNNNNNNNNNNNNNNNNNNNNNP00000000000NNNNNNNNNNNNNNNNNNNNNNNNNNNNNNNNNNNNNNNNNNNNNNNNNNNNNNNNNNNN20180407000000001
Bloque: 279696260110333330033313255297                    CACaja de Ahorro      S$         011BCO. NACION ARGENTINA          27279696269ANA PAOLA EMILCE                                            P00000000000NNNNNNNNNNNNNNNNNNNNNNNNNNNNNNNNNNNNNNNNNNNNNNNNNNNNNNNNNNNNP00000000000NNNNNNNNNNNNNNNNNNNNNNNNNNNNNNNNNNNNNNNNNNNNNNNNNNNNNNNNNNNNP00000000000NNNNNNNNNNNNNNNNNNNNNNNNNNNNNNNNNNNNNNNNNNNNNNNNNNNNNNNNNNNN20190615000000001
Bloque: 356645040830016434003993300017                    CACaja de Ahorro      S$         083BCO.PROVINCIA CHUBUT           23356645049GALLARDO ENZO JUAN MARTIN                                   P00000000000NNNNNNNNNNNNNNNNNNNNNNNNNNNNNNNNNNNNNNNNNNNNNNNNNNNNNNNNNNNNP00000000000NNNNNNNNNNNNNNNNNNNNNNNNNNNNNNNNNNNNNNNNNNNNNNNNNNNNNNNNNNNNP00000000000NNNNNNNNNNNNNNNNNNNNNNNNNNNNNNNNNNNNNNNNNNNNNNNNNNNNNNNNNNNN20180528000000001
Bloque: 267445702850324840094986094968                    CACaja de Ahorro      S$         285BANCO MACRO                    27267445708ANGULO PAOLA ROMINA                                         P00000000000NNNNNNNNNNNNNNNNNNNNNNNNNNNNNNNNNNNNNNNNNNNNNNNNNNNNNNNNNNNNP00000000000NNNNNNNNNNNNNNNNNNNNNNNNNNNNNNNNNNNNNNNNNNNNNNNNNNNNNNNNNNNNP00000000000NNNNNNNNNNNNNNNNNNNNNNNNNNNNNNNNNNNNNNNNNNNNNNNNNNNNNNNNNNNN20200403000000001
Bloque: 339484870440015840000194774086                    CACaja de Ahorro      S$         044BANCO HIPOTECARIO S.A.         20339484873COSTANTINO JOSE MIGUEL                                      P00000000000NNNNNNNNNNNNNNNNNNNNNNNNNNNNNNNNNNNNNNNNNNNNNNNNNNNNNNNNNNNNP00000000000NNNNNNNNNNNNNNNNNNNNNNNNNNNNNNNNNNNNNNNNNNNNNNNNNNNNNNNNNNNNP00000000000NNNNNNNNNNNNNNNNNNNNNNNNNNNNNNNNNNNNNNNNNNNNNNNNNNNNNNNNNNNN20190514000000001
Bloque: 329353163110030211003075962055                    CACaja de Ahorro      S$         311NUEVO BANCO DEL CHACO          20329353169GONZALEZ LUCAS MATIAS                                       P00000000000NNNNNNNNNNNNNNNNNNNNNNNNNNNNNNNNNNNNNNNNNNNNNNNNNNNNNNNNNNNNP00000000000NNNNNNNNNNNNNNNNNNNNNNNNNNNNNNNNNNNNNNNNNNNNNNNNNNNNNNNNNNNNP00000000000NNNNNNNNNNNNNNNNNNNNNNNNNNNNNNNNNNNNNNNNNNNNNNNNNNNNNNNNNNNN20190515000000001
Bloque: 271194890110524730052477445197                    CACaja de Ahorro      S$         011BCO. NACION ARGENTINA          27271194892MILOBICHI MARIANGELES                                       P00000000000NNNNNNNNNNNNNNNNNNNNNNNNNNNNNNNNNNNNNNNNNNNNNNNNNNNNNNNNNNNNP00000000000NNNNNNNNNNNNNNNNNNNNNNNNNNNNNNNNNNNNNNNNNNNNNNNNNNNNNNNNNNNNP00000000000NNNNNNNNNNNNNNNNNNNNNNNNNNNNNNNNNNNNNNNNNNNNNNNNNNNNNNNNNNNN20190515000000001
Bloque: 252787573150104412000543940048                    CCCuenta Corriente    S$         315BCO. PROV. FORMOSA             20252787578ROMANO REYES ADRIAN                                         P00000000000NNNNNNNNNNNNNNNNNNNNNNNNNNNNNNNNNNNNNNNNNNNNNNNNNNNNNNNNNNNNP00000000000NNNNNNNNNNNNNNNNNNNNNNNNNNNNNNNNNNNNNNNNNNNNNNNNNNNNNNNNNNNNP00000000000NNNNNNNNNNNNNNNNNNNNNNNNNNNNNNNNNNNNNNNNNNNNNNNNNNNNNNNNNNNN20201014000000001
Bloque: 341951500450500601800004674811                    CACaja de Ahorro      S$         045BANCO SAN JUAN                 27341951505ARCHILLA AGUILERA, MARIA LAURA                              P00000000000NNNNNNNNNNNNNNNNNNNNNNNNNNNNNNNNNNNNNNNNNNNNNNNNNNNNNNNNNNNNP00000000000NNNNNNNNNNNNNNNNNNNNNNNNNNNNNNNNNNNNNNNNNNNNNNNNNNNNNNNNNNNNP00000000000NNNNNNNNNNNNNNNNNNNNNNNNNNNNNNNNNNNNNNNNNNNNNNNNNNNNNNNNNNNN20200510000000001
Bloque: 393214150340104608104018484002                    CACaja de Ahorro      S$         034BANCO PATAGONIA                27393214150HERRERA, NATASHA    /                                       P00000000000NNNNNNNNNNNNNNNNNNNNNNNNNNNNNNNNNNNNNNNNNNNNNNNNNNNNNNNNNNNNP00000000000NNNNNNNNNNNNNNNNNNNNNNNNNNNNNNNNNNNNNNNNNNNNNNNNNNNNNNNNNNNNP00000000000NNNNNNNNNNNNNNNNNNNNNNNNNNNNNNNNNNNNNNNNNNNNNNNNNNNNNNNNNNNN20190515000000001
Bloque: 384165452850411140095014504628                    CACaja de Ahorro      S$         285BANCO MACRO                    27384165457VIRUEZ NATALIA CARINA                                       P00000000000NNNNNNNNNNNNNNNNNNNNNNNNNNNNNNNNNNNNNNNNNNNNNNNNNNNNNNNNNNNNP00000000000NNNNNNNNNNNNNNNNNNNNNNNNNNNNNNNNNNNNNNNNNNNNNNNNNNNNNNNNNNNNP00000000000NNNNNNNNNNNNNNNNNNNNNNNNNNNNNNNNNNNNNNNNNNNNNNNNNNNNNNNNNNNN20190514000000001
Bloque: 373757250070236430004038899828                    CACaja de Ahorro      S$         007BANCO DE GALICIA               27373757255PEREZ LABORDA DOLORES HILDA                                 P00000000000NNNNNNNNNNNNNNNNNNNNNNNNNNNNNNNNNNNNNNNNNNNNNNNNNNNNNNNNNNNNP00000000000NNNNNNNNNNNNNNNNNNNNNNNNNNNNNNNNNNNNNNNNNNNNNNNNNNNNNNNNNNNNP00000000000NNNNNNNNNNNNNNNNNNNNNNNNNNNNNNNNNNNNNNNNNNNNNNNNNNNNNNNNNNNN20190515000000001
Bloque: 264506930150809101000117802673                    CACaja de Ahorro      S$         015ICBC                           27264506935MAYORDOMO GABRIELA RO                                       P00000000000NNNNNNNNNNNNNNNNNNNNNNNNNNNNNNNNNNNNNNNNNNNNNNNNNNNNNNNNNNNNP00000000000NNNNNNNNNNNNNNNNNNNNNNNNNNNNNNNNNNNNNNNNNNNNNNNNNNNNNNNNNNNNP00000000000NNNNNNNNNNNNNNNNNNNNNNNNNNNNNNNNNNNNNNNNNNNNNNNNNNNNNNNNNNNN20190514000000001
Bloque: 299137480110283530028371157933                    CACAJA DE AHORRO      SS         INKBCO. NACION ARGENTINA         F20299137482Luis Gualino                                                P00000000000NNNNNNNNNNNNNNNNNNNNNNNNNNNNNNNNNNNNNNNNNNNNNNNNNNNNNNNNNNNNP00000000000NNNNNNNNNNNNNNNNNNNNNNNNNNNNNNNNNNNNNNNNNNNNNNNNNNNNNNNNNNNNP00000000000NNNNNNNNNNNNNNNNNNNNNNNNNNNNNNNNNNNNNNNNNNNNNNNNNNNNNNNNNNNN20190514000000001
Bloque: 351231011910001855100102423049                    CACaja de Ahorro      S$         191BANCO CREDICOOP                27351231012GABALDON GONZALEZ BA JOHANA VERONICA                        P00000000000NNNNNNNNNNNNNNNNNNNNNNNNNNNNNNNNNNNNNNNNNNNNNNNNNNNNNNNNNNNNP00000000000NNNNNNNNNNNNNNNNNNNNNNNNNNNNNNNNNNNNNNNNNNNNNNNNNNNNNNNNNNNNP00000000000NNNNNNNNNNNNNNNNNNNNNNNNNNNNNNNNNNNNNNNNNNNNNNNNNNNNNNNNNNNN20190515000000001
Bloque: 408844810070999030004062795190                    CACaja de Ahorro      S$         007BANCO DE GALICIA               23408844819RODRIGUEZ FACUNDO EDUARDO                                   P00000000000NNNNNNNNNNNNNNNNNNNNNNNNNNNNNNNNNNNNNNNNNNNNNNNNNNNNNNNNNNNNP00000000000NNNNNNNNNNNNNNNNNNNNNNNNNNNNNNNNNNNNNNNNNNNNNNNNNNNNNNNNNNNNP00000000000NNNNNNNNNNNNNNNNNNNNNNNNNNNNNNNNNNNNNNNNNNNNNNNNNNNNNNNNNNNN20180130000000001
Bloque: 177697421910252655125200048471                    CACaja de Ahorro      S$         191BANCO CREDICOOP                27177697422GUAIQUIN EDILIA                                             P00000000000NNNNNNNNNNNNNNNNNNNNNNNNNNNNNNNNNNNNNNNNNNNNNNNNNNNNNNNNNNNNP00000000000NNNNNNNNNNNNNNNNNNNNNNNNNNNNNNNNNNNNNNNNNNNNNNNNNNNNNNNNNNNNP00000000000NNNNNNNNNNNNNNNNNNNNNNNNNNNNNNNNNNNNNNNNNNNNNNNNNNNNNNNNNNNN20190514000000001
Bloque: 217636460720176588000022185404                    CCCuenta Corriente    S$         072BANCO SANTANDER RIO            27217636464AUYEROC KARINA PAULA                                        P00000000000NNNNNNNNNNNNNNNNNNNNNNNNNNNNNNNNNNNNNNNNNNNNNNNNNNNNNNNNNNNNP00000000000NNNNNNNNNNNNNNNNNNNNNNNNNNNNNNNNNNNNNNNNNNNNNNNNNNNNNNNNNNNNP00000000000NNNNNNNNNNNNNNNNNNNNNNNNNNNNNNNNNNNNNNNNNNNNNNNNNNNNNNNNNNNN20190514000000001
Bloque: 338375742850771440094873047978                    CACaja de Ahorro      S$         285BANCO MACRO                    27338375749IBACETA JESICA ALEJANDRA                                    P00000000000NNNNNNNNNNNNNNNNNNNNNNNNNNNNNNNNNNNNNNNNNNNNNNNNNNNNNNNNNNNNP00000000000NNNNNNNNNNNNNNNNNNNNNNNNNNNNNNNNNNNNNNNNNNNNNNNNNNNNNNNNNNNNP00000000000NNNNNNNNNNNNNNNNNNNNNNNNNNNNNNNNNNNNNNNNNNNNNNNNNNNNNNNNNNNN20190514000000001
Bloque: 178087902850339240094087665168                    CACaja de Ahorro      S$         285BANCO MACRO                    27178087903GARRIDO CLAUDIA                                             P00000000000NNNNNNNNNNNNNNNNNNNNNNNNNNNNNNNNNNNNNNNNNNNNNNNNNNNNNNNNNNNNP00000000000NNNNNNNNNNNNNNNNNNNNNNNNNNNNNNNNNNNNNNNNNNNNNNNNNNNNNNNNNNNNP00000000000NNNNNNNNNNNNNNNNNNNNNNNNNNNNNNNNNNNNNNNNNNNNNNNNNNNNNNNNNNNN20181110000000001
Bloque: 246848410200390811000000289380                    CACaja de Ahorro      S$         020BCO PCIA DE CORDOBA SA         27246848411VELAZQUEZ, ANDREA NOEMI                                     P00000000000NNNNNNNNNNNNNNNNNNNNNNNNNNNNNNNNNNNNNNNNNNNNNNNNNNNNNNNNNNNNP00000000000NNNNNNNNNNNNNNNNNNNNNNNNNNNNNNNNNNNNNNNNNNNNNNNNNNNNNNNNNNNNP00000000000NNNNNNNNNNNNNNNNNNNNNNNNNNNNNNNNNNNNNNNNNNNNNNNNNNNNNNNNNNNN20190515000000001
Bloque: 308069572850100640094010850308pato.camisa.tapia   CACAJA DE AHORRO      SS         MBSBANCO MACRO                   F27308069570Claudia Portal                                              P00000000000NNNNNNNNNNNNNNNNNNNNNNNNNNNNNNNNNNNNNNNNNNNNNNNNNNNNNNNNNNNNP00000000000NNNNNNNNNNNNNNNNNNNNNNNNNNNNNNNNNNNNNNNNNNNNNNNNNNNNNNNNNNNNP00000000000NNNNNNNNNNNNNNNNNNNNNNNNNNNNNNNNNNNNNNNNNNNNNNNNNNNNNNNNNNNN20190515000000001
Bloque: 176611542850206140095298328958                    CACAJA DE AHORRO      SS         MBSBANCO MACRO                   F27176611540Delia Luisa Calapea                                        P00000000000NNNNNNNNNNNNNNNNNNNNNNNNNNNNNNNNNNNNNNNNNNNNNNNNNNNNNNNNNNNNP00000000000NNNNNNNNNNNNNNNNNNNNNNNNNNNNNNNNNNNNNNNNNNNNNNNNNNNNNNNNNNNNP00000000000NNNNNNNNNNNNNNNNNNNNNNNNNNNNNNNNNNNNNNNNNNNNNNNNNNNNNNNNNNNN20210326000000001
Bloque: 286773033210230750000780864840                    CACaja de Ahorro      S$         321B. SANTIAGO DEL ESTERO         27286773031CISNEROS,LAURA CAROLINA                                     P00000000000NNNNNNNNNNNNNNNNNNNNNNNNNNNNNNNNNNNNNNNNNNNNNNNNNNNNNNNNNNNNP00000000000NNNNNNNNNNNNNNNNNNNNNNNNNNNNNNNNNNNNNNNNNNNNNNNNNNNNNNNNNNNNP00000000000NNNNNNNNNNNNNNNNNNNNNNNNNNNNNNNNNNNNNNNNNNNNNNNNNNNNNNNNNNNN20190514000000001
Bloque: 279568522850381140017001200009                    CACaja de Ahorro      S$         285BANCO MACRO                    23279568524RODRIGUEZ SONIA SILVANA                                     P00000000000NNNNNNNNNNNNNNNNNNNNNNNNNNNNNNNNNNNNNNNNNNNNNNNNNNNNNNNNNNNNP00000000000NNNNNNNNNNNNNNNNNNNNNNNNNNNNNNNNNNNNNNNNNNNNNNNNNNNNNNNNNNNNP00000000000NNNNNNNNNNNNNNNNNNNNNNNNNNNNNNNNNNNNNNNNNNNNNNNNNNNNNNNNNNNN20190515000000001
Bloque: 297891310270101720039412860018                    CACaja de Ahorro      S$         027BANCO SUPERVIELLE              27297891311FARGIONI MARIANA NATALIA                                    P00000000000NNNNNNNNNNNNNNNNNNNNNNNNNNNNNNNNNNNNNNNNNNNNNNNNNNNNNNNNNNNNP00000000000NNNNNNNNNNNNNNNNNNNNNNNNNNNNNNNNNNNNNNNNNNNNNNNNNNNNNNNNNNNNP00000000000NNNNNNNNNNNNNNNNNNNNNNNNNNNNNNNNNNNNNNNNNNNNNNNNNNNNNNNNNNNN20200511000000001
Bloque: 187351760340060908600003924000                    CACaja de Ahorro      S$         034BANCO PATAGONIA                20187351767SILVA, FRANCISCO JOS/                                       P00000000000NNNNNNNNNNNNNNNNNNNNNNNNNNNNNNNNNNNNNNNNNNNNNNNNNNNNNNNNNNNNP00000000000NNNNNNNNNNNNNNNNNNNNNNNNNNNNNNNNNNNNNNNNNNNNNNNNNNNNNNNNNNNNP00000000000NNNNNNNNNNNNNNNNNNNNNNNNNNNNNNNNNNNNNNNNNNNNNNNNNNNNNNNNNNNN20200413000000001
Bloque: 929129490290056810000081303543                    CACAJA DE AHORRO      SS         INKBANCO CIUDAD                  F27929129496Marta Gimenez Ferreira                                      P00000000000NNNNNNNNNNNNNNNNNNNNNNNNNNNNNNNNNNNNNNNNNNNNNNNNNNNNNNNNNNNNP00000000000NNNNNNNNNNNNNNNNNNNNNNNNNNNNNNNNNNNNNNNNNNNNNNNNNNNNNNNNNNNNP00000000000NNNNNNNNNNNNNNNNNNNNNNNNNNNNNNNNNNNNNNNNNNNNNNNNNNNNNNNNNNNN20190514000000001
Bloque: 316087940200304511000012080908                    CACaja de Ahorro      S$         020BCO PCIA DE CORDOBA SA         23316087949VASSIA, ALVARO                                              P00000000000NNNNNNNNNNNNNNNNNNNNNNNNNNNNNNNNNNNNNNNNNNNNNNNNNNNNNNNNNNNNP00000000000NNNNNNNNNNNNNNNNNNNNNNNNNNNNNNNNNNNNNNNNNNNNNNNNNNNNNNNNNNNNP00000000000NNNNNNNNNNNNNNNNNNNNNNNNNNNNNNNNNNNNNNNNNNNNNNNNNNNNNNNNNNNN20191002000000001
Bloque: 175446910340289608289008432008                    CACAJA DE AHORRO      SS         DMRBANCO PATAGONIA               F27175446910SANDRA MARISA MARTINEZ                                      P00000000000NNNNNNNNNNNNNNNNNNNNNNNNNNNNNNNNNNNNNNNNNNNNNNNNNNNNNNNNNNNNP00000000000NNNNNNNNNNNNNNNNNNNNNNNNNNNNNNNNNNNNNNNNNNNNNNNNNNNNNNNNNNNNP00000000000NNNNNNNNNNNNNNNNNNNNNNNNNNNNNNNNNNNNNNNNNNNNNNNNNNNNNNNNNNNN20190722000000001
Bloque: 138925120270203420036786890010                    CACaja de Ahorro      S$         027BANCO SUPERVIELLE              27138925124AGUIRRE MARIA EUGENIA                                       P00000000000NNNNNNNNNNNNNNNNNNNNNNNNNNNNNNNNNNNNNNNNNNNNNNNNNNNNNNNNNNNNP00000000000NNNNNNNNNNNNNNNNNNNNNNNNNNNNNNNNNNNNNNNNNNNNNNNNNNNNNNNNNNNNP00000000000NNNNNNNNNNNNNNNNNNNNNNNNNNNNNNNNNNNNNNNNNNNNNNNNNNNNNNNNNNNN20190514000000001
Bloque: 270124850170215840000016526550                    CACaja de Ahorro      S$         017BBVA FRANCES                   20270124853BARBERO   BLAS GASTO                                        P00000000000NNNNNNNNNNNNNNNNNNNNNNNNNNNNNNNNNNNNNNNNNNNNNNNNNNNNNNNNNNNNP00000000000NNNNNNNNNNNNNNNNNNNNNNNNNNNNNNNNNNNNNNNNNNNNNNNNNNNNNNNNNNNNP00000000000NNNNNNNNNNNNNNNNNNNNNNNNNNNNNNNNNNNNNNNNNNNNNNNNNNNNNNNNNNNN20220701000000001
Bloque: 269953920110226230022673963029                    CACaja de Ahorro      S$         011BCO. NACION ARGENTINA          20269953927RODRIGUEZ DIEGO EMILIO                                      P00000000000NNNNNNNNNNNNNNNNNNNNNNNNNNNNNNNNNNNNNNNNNNNNNNNNNNNNNNNNNNNNP00000000000NNNNNNNNNNNNNNNNNNNNNNNNNNNNNNNNNNNNNNNNNNNNNNNNNNNNNNNNNNNNP00000000000NNNNNNNNNNNNNNNNNNNNNNNNNNNNNNNNNNNNNNNNNNNNNNNNNNNNNNNNNNNN20190515000000001
Bloque: 268187262850012640000849256938                    CACaja de Ahorro      S$         285BANCO MACRO                    20268187260RODRIGUEZ JUAN CARLOS                                       P00000000000NNNNNNNNNNNNNNNNNNNNNNNNNNNNNNNNNNNNNNNNNNNNNNNNNNNNNNNNNNNNP00000000000NNNNNNNNNNNNNNNNNNNNNNNNNNNNNNNNNNNNNNNNNNNNNNNNNNNNNNNNNNNNP00000000000NNNNNNNNNNNNNNNNNNNNNNNNNNNNNNNNNNNNNNNNNNNNNNNNNNNNNNNNNNNN20230203000000001
Bloque: 298566490110006830000615682001jufeli16            CACaja de Ahorro      S$         011BCO. NACION ARGENTINA          20298566495CURTI JUAN PABLO                                            P00000000000NNNNNNNNNNNNNNNNNNNNNNNNNNNNNNNNNNNNNNNNNNNNNNNNNNNNNNNNNNNNP00000000000NNNNNNNNNNNNNNNNNNNNNNNNNNNNNNNNNNNNNNNNNNNNNNNNNNNNNNNNNNNNP00000000000NNNNNNNNNNNNNNNNNNNNNNNNNNNNNNNNNNNNNNNNNNNNNNNNNNNNNNNNNNNN20180912000000001
Bloque: 250520940720148288000036088290                    CCCuenta Corriente    S$         072BANCO SANTANDER RIO            20250520949KAPOSVARI ANDRES MARCELO                                    P00000000000NNNNNNNNNNNNNNNNNNNNNNNNNNNNNNNNNNNNNNNNNNNNNNNNNNNNNNNNNNNNP00000000000NNNNNNNNNNNNNNNNNNNNNNNNNNNNNNNNNNNNNNNNNNNNNNNNNNNNNNNNNNNNP00000000000NNNNNNNNNNNNNNNNNNNNNNNNNNNNNNNNNNNNNNNNNNNNNNNNNNNNNNNNNNNN20190514000000001
Bloque: 236517201500671600067160977300                    CACaja de Ahorro      S$         150HSBC BANK ARG. S.A             27236517204FARIAS, KARINA DEOLINDA/                                    P00000000000NNNNNNNNNNNNNNNNNNNNNNNNNNNNNNNNNNNNNNNNNNNNNNNNNNNNNNNNNNNNP00000000000NNNNNNNNNNNNNNNNNNNNNNNNNNNNNNNNNNNNNNNNNNNNNNNNNNNNNNNNNNNNP00000000000NNNNNNNNNNNNNNNNNNNNNNNNNNNNNNNNNNNNNNNNNNNNNNNNNNNNNNNNNNNN20190514000000001
Bloque: 226010130600000440080073178778                    CACaja de Ahorro      S$         060BANCO DEL TUCUMAN              20226010131BARRETO JORGE EDUARD                                        P00000000000NNNNNNNNNNNNNNNNNNNNNNNNNNNNNNNNNNNNNNNNNNNNNNNNNNNNNNNNNNNNP00000000000NNNNNNNNNNNNNNNNNNNNNNNNNNNNNNNNNNNNNNNNNNNNNNNNNNNNNNNNNNNNP00000000000NNNNNNNNNNNNNNNNNNNNNNNNNNNNNNNNNNNNNNNNNNNNNNNNNNNNNNNNNNNN20190515000000001
Bloque: 255855840070081830004058488617                    CACaja de Ahorro      S$         007BANCO DE GALICIA               20255855841TOBARES  JORGE MARTIN                                       P00000000000NNNNNNNNNNNNNNNNNNNNNNNNNNNNNNNNNNNNNNNNNNNNNNNNNNNNNNNNNNNNP00000000000NNNNNNNNNNNNNNNNNNNNNNNNNNNNNNNNNNNNNNNNNNNNNNNNNNNNNNNNNNNNP00000000000NNNNNNNNNNNNNNNNNNNNNNNNNNNNNNNNNNNNNNNNNNNNNNNNNNNNNNNNNNNN20220513000000001
Bloque: 314221871910027855002753013782                    CCCuenta Corriente    S$         191BANCO CREDICOOP                20314221878ZALAZAR DIEGO ELISEO                                        P00000000000NNNNNNNNNNNNNNNNNNNNNNNNNNNNNNNNNNNNNNNNNNNNNNNNNNNNNNNNNNNNP00000000000NNNNNNNNNNNNNNNNNNNNNNNNNNNNNNNNNNNNNNNNNNNNNNNNNNNNNNNNNNNNP00000000000NNNNNNNNNNNNNNNNNNNNNNNNNNNNNNNNNNNNNNNNNNNNNNNNNNNNNNNNNNNN20180827000000001
Bloque: 237366202850148840094061959108                    CACaja de Ahorro      S$         285BANCO MACRO                    23237366204FERNANDEZ VERONICA ANALIA                                   P00000000000NNNNNNNNNNNNNNNNNNNNNNNNNNNNNNNNNNNNNNNNNNNNNNNNNNNNNNNNNNNNP00000000000NNNNNNNNNNNNNNNNNNNNNNNNNNNNNNNNNNNNNNNNNNNNNNNNNNNNNNNNNNNNP00000000000NNNNNNNNNNNNNNNNNNNNNNNNNNNNNNNNNNNNNNNNNNNNNNNNNNNNNNNNNNNN20190307000000001
Bloque: 231993160110239230023907479615                    CACaja de Ahorro      S$         011BCO. NACION ARGENTINA          20178228308SALLEO CARLOS ALBERTO/COSTILLA DELIA PAOLA                  P00000000000NNNNNNNNNNNNNNNNNNNNNNNNNNNNNNNNNNNNNNNNNNNNNNNNNNNNNNNNNNNNP00000000000NNNNNNNNNNNNNNNNNNNNNNNNNNNNNNNNNNNNNNNNNNNNNNNNNNNNNNNNNNNNP00000000000NNNNNNNNNNNNNNNNNNNNNNNNNNNNNNNNNNNNNNNNNNNNNNNNNNNNNNNNNNNN20200215000000001
Bloque: 326765080070076430004099765106cristian.visciglia  CACaja de Ahorro      S$         007BANCO DE GALICIA               20326765083VISCIGLIA CRISTIAN ADRIAN                                   P00000000000NNNNNNNNNNNNNNNNNNNNNNNNNNNNNNNNNNNNNNNNNNNNNNNNNNNNNNNNNNNNP00000000000NNNNNNNNNNNNNNNNNNNNNNNNNNNNNNNNNNNNNNNNNNNNNNNNNNNNNNNNNNNNP00000000000NNNNNNNNNNNNNNNNNNNNNNNNNNNNNNNNNNNNNNNNNNNNNNNNNNNNNNNNNNNN20190202000000001
Bloque: 117155490340210008710054591013                    CACaja de Ahorro      S$         034BANCO PATAGONIA                20117155499AVILA, JORGE TOMAS  /                                       P00000000000NNNNNNNNNNNNNNNNNNNNNNNNNNNNNNNNNNNNNNNNNNNNNNNNNNNNNNNNNNNNP00000000000NNNNNNNNNNNNNNNNNNNNNNNNNNNNNNNNNNNNNNNNNNNNNNNNNNNNNNNNNNNNP00000000000NNNNNNNNNNNNNNNNNNNNNNNNNNNNNNNNNNNNNNNNNNNNNNNNNNNNNNNNNNNN20190731000000001
Bloque: 343271180070089430004070898481                    CACaja de Ahorro      S$         007BANCO DE GALICIA               27343271188TEJEDA LUZ ELIZABETH                                        P00000000000NNNNNNNNNNNNNNNNNNNNNNNNNNNNNNNNNNNNNNNNNNNNNNNNNNNNNNNNNNNNP00000000000NNNNNNNNNNNNNNNNNNNNNNNNNNNNNNNNNNNNNNNNNNNNNNNNNNNNNNNNNNNNP00000000000NNNNNNNNNNNNNNNNNNNNNNNNNNNNNNNNNNNNNNNNNNNNNNNNNNNNNNNNNNNN20190515000000001
Bloque: 309555263110021011001004111071                    CACAJA DE AHORRO      SS         INKNUEVO BANCO DEL CHACO         F20309555261Daniel Oicchuk                                              P00000000000NNNNNNNNNNNNNNNNNNNNNNNNNNNNNNNNNNNNNNNNNNNNNNNNNNNNNNNNNNNNP00000000000NNNNNNNNNNNNNNNNNNNNNNNNNNNNNNNNNNNNNNNNNNNNNNNNNNNNNNNNNNNNP00000000000NNNNNNNNNNNNNNNNNNNNNNNNNNNNNNNNNNNNNNNNNNNNNNNNNNNNNNNNNNNN20190513000000001
Bloque: 235764271500018300006863155996                    CACaja de Ahorro      S$         150HSBC BANK ARG. S.A             20235764270TOLEDO, HUGO RAMON/                                         P00000000000NNNNNNNNNNNNNNNNNNNNNNNNNNNNNNNNNNNNNNNNNNNNNNNNNNNNNNNNNNNNP00000000000NNNNNNNNNNNNNNNNNNNNNNNNNNNNNNNNNNNNNNNNNNNNNNNNNNNNNNNNNNNNP00000000000NNNNNNNNNNNNNNNNNNNNNNNNNNNNNNNNNNNNNNNNNNNNNNNNNNNNNNNNNNNN20190515000000001
Bloque: 201340840110478730047800217529                    CACaja de Ahorro      S$         011BCO. NACION ARGENTINA          27201340840GARRAZA MARISA HILDA                                        P00000000000NNNNNNNNNNNNNNNNNNNNNNNNNNNNNNNNNNNNNNNNNNNNNNNNNNNNNNNNNNNNP00000000000NNNNNNNNNNNNNNNNNNNNNNNNNNNNNNNNNNNNNNNNNNNNNNNNNNNNNNNNNNNNP00000000000NNNNNNNNNNNNNNNNNNNNNNNNNNNNNNNNNNNNNNNNNNNNNNNNNNNNNNNNNNNN20181130000000001
Bloque: 343971440340110708110010160006                    CACaja de Ahorro      S$         034BANCO PATAGONIA                27343971449ZACARIAS, NOELIA ELI/                                       P00000000000NNNNNNNNNNNNNNNNNNNNNNNNNNNNNNNNNNNNNNNNNNNNNNNNNNNNNNNNNNNNP00000000000NNNNNNNNNNNNNNNNNNNNNNNNNNNNNNNNNNNNNNNNNNNNNNNNNNNNNNNNNNNNP00000000000NNNNNNNNNNNNNNNNNNNNNNNNNNNNNNNNNNNNNNNNNNNNNNNNNNNNNNNNNNNN20190515000000001
Bloque: 206534310270102420007624440010                    CACaja de Ahorro      S$         027BANCO SUPERVIELLE              27206534317ACOSTA SILVIA ANDREA                                        P00000000000NNNNNNNNNNNNNNNNNNNNNNNNNNNNNNNNNNNNNNNNNNNNNNNNNNNNNNNNNNNNP00000000000NNNNNNNNNNNNNNNNNNNNNNNNNNNNNNNNNNNNNNNNNNNNNNNNNNNNNNNNNNNNP00000000000NNNNNNNNNNNNNNNNNNNNNNNNNNNNNNNNNNNNNNNNNNNNNNNNNNNNNNNNNNNN20180927000000001
Bloque: 360670420340263608124185610000                    CACaja de Ahorro      S$         034BANCO PATAGONIA                27360670428PETRIELLA ANGELANI, /                                       P00000000000NNNNNNNNNNNNNNNNNNNNNNNNNNNNNNNNNNNNNNNNNNNNNNNNNNNNNNNNNNNNP00000000000NNNNNNNNNNNNNNNNNNNNNNNNNNNNNNNNNNNNNNNNNNNNNNNNNNNNNNNNNNNNP00000000000NNNNNNNNNNNNNNNNNNNNNNNNNNNNNNNNNNNNNNNNNNNNNNNNNNNNNNNNNNNN20190515000000001
Bloque: 312096372850042340095019357968                    CACaja de Ahorro      S$         285BANCO MACRO                    23312096374NIEVES MARIA GUADALUPE                                      P00000000000NNNNNNNNNNNNNNNNNNNNNNNNNNNNNNNNNNNNNNNNNNNNNNNNNNNNNNNNNNNNP00000000000NNNNNNNNNNNNNNNNNNNNNNNNNNNNNNNNNNNNNNNNNNNNNNNNNNNNNNNNNNNNP00000000000NNNNNNNNNNNNNNNNNNNNNNNNNNNNNNNNNNNNNNNNNNNNNNNNNNNNNNNNNNNN20190515000000001
Bloque: 336876420970011655006770100014                    CACaja de Ahorro      S$         097BANCO NEUQUEN                  27336876422PIVIDORI MARIANELA EDITH                                    P00000000000NNNNNNNNNNNNNNNNNNNNNNNNNNNNNNNNNNNNNNNNNNNNNNNNNNNNNNNNNNNNP00000000000NNNNNNNNNNNNNNNNNNNNNNNNNNNNNNNNNNNNNNNNNNNNNNNNNNNNNNNNNNNNP00000000000NNNNNNNNNNNNNNNNNNNNNNNNNNNNNNNNNNNNNNNNNNNNNNNNNNNNNNNNNNNN20180604000000001
Bloque: 331782490720159888000037077790                    CCCuenta Corriente    S$         072BANCO SANTANDER RIO            27331782497MONACO MARIBEL CAROLINA /VEGA MAURICIO JAVIER               P00000000000NNNNNNNNNNNNNNNNNNNNNNNNNNNNNNNNNNNNNNNNNNNNNNNNNNNNNNNNNNNNP00000000000NNNNNNNNNNNNNNNNNNNNNNNNNNNNNNNNNNNNNNNNNNNNNNNNNNNNNNNNNNNNP00000000000NNNNNNNNNNNNNNNNNNNNNNNNNNNNNNNNNNNNNNNNNNNNNNNNNNNNNNNNNNNN20180628000000001
Bloque: 276532110720374788000035636636                    CCCuenta Corriente    S$         072BANCO SANTANDER RIO            20276532112URRETS ZAVALIA GREGORIO /GONZALEZ ROMINA ESTHER             P00000000000NNNNNNNNNNNNNNNNNNNNNNNNNNNNNNNNNNNNNNNNNNNNNNNNNNNNNNNNNNNNP00000000000NNNNNNNNNNNNNNNNNNNNNNNNNNNNNNNNNNNNNNNNNNNNNNNNNNNNNNNNNNNNP00000000000NNNNNNNNNNNNNNNNNNNNNNNNNNNNNNNNNNNNNNNNNNNNNNNNNNNNNNNNNNNN20190513000000001
Bloque: 294517790110208830020816356565Bermejo1832         CACAJA DE AHORRO      SS         INKBCO. NACION ARGENTINA         F20294517791RICARDO CAMILO VILLAVICENCIO                                P00000000000NNNNNNNNNNNNNNNNNNNNNNNNNNNNNNNNNNNNNNNNNNNNNNNNNNNNNNNNNNNNP00000000000NNNNNNNNNNNNNNNNNNNNNNNNNNNNNNNNNNNNNNNNNNNNNNNNNNNNNNNNNNNNP00000000000NNNNNNNNNNNNNNNNNNNNNNNNNNNNNNNNNNNNNNNNNNNNNNNNNNNNNNNNNNNN20190514000000001
Bloque: 349554920140421403610151314214                    CACaja de Ahorro      S$         014BANCO PROVINCIA BS.AS.         27349554920BRENDA ANTONELA,MILLICAY                                    P00000000000NNNNNNNNNNNNNNNNNNNNNNNNNNNNNNNNNNNNNNNNNNNNNNNNNNNNNNNNNNNNP00000000000NNNNNNNNNNNNNNNNNNNNNNNNNNNNNNNNNNNNNNNNNNNNNNNNNNNNNNNNNNNNP00000000000NNNNNNNNNNNNNNNNNNNNNNNNNNNNNNNNNNNNNNNNNNNNNNNNNNNNNNNNNNNN20190709000000001
Bloque: 219276822850208540000829219678                    CACaja de Ahorro      S$         285BANCO MACRO                    27219276821ESTRADA ANITA                                               P00000000000NNNNNNNNNNNNNNNNNNNNNNNNNNNNNNNNNNNNNNNNNNNNNNNNNNNNNNNNNNNNP00000000000NNNNNNNNNNNNNNNNNNNNNNNNNNNNNNNNNNNNNNNNNNNNNNNNNNNNNNNNNNNNP00000000000NNNNNNNNNNNNNNNNNNNNNNNNNNNNNNNNNNNNNNNNNNNNNNNNNNNNNNNNNNNN20200411000000001
Bloque: 133493660110225530022511749765                    CACAJA DE AHORRO      SS         INKBCO. NACION ARGENTINA         F20133493663Jorge Aguirre                                               P00000000000NNNNNNNNNNNNNNNNNNNNNNNNNNNNNNNNNNNNNNNNNNNNNNNNNNNNNNNNNNNNP00000000000NNNNNNNNNNNNNNNNNNNNNNNNNNNNNNNNNNNNNNNNNNNNNNNNNNNNNNNNNNNNP00000000000NNNNNNNNNNNNNNNNNNNNNNNNNNNNNNNNNNNNNNNNNNNNNNNNNNNNNNNNNNNN20190514000000001
Bloque: 357510940070111830004157183415                    CACaja de Ahorro      S$         007BANCO DE GALICIA               20357510946SAGLIONE LEANDRO DAVID                                      P00000000000NNNNNNNNNNNNNNNNNNNNNNNNNNNNNNNNNNNNNNNNNNNNNNNNNNNNNNNNNNNNP00000000000NNNNNNNNNNNNNNNNNNNNNNNNNNNNNNNNNNNNNNNNNNNNNNNNNNNNNNNNNNNNP00000000000NNNNNNNNNNNNNNNNNNNNNNNNNNNNNNNNNNNNNNNNNNNNNNNNNNNNNNNNNNNN20180502000000001
Bloque: 188427470070198930004021801409                    CACaja de Ahorro      S$         007BANCO DE GALICIA               20188427473URIBE CRISTIAN                                              P00000000000NNNNNNNNNNNNNNNNNNNNNNNNNNNNNNNNNNNNNNNNNNNNNNNNNNNNNNNNNNNNP00000000000NNNNNNNNNNNNNNNNNNNNNNNNNNNNNNNNNNNNNNNNNNNNNNNNNNNNNNNNNNNNP00000000000NNNNNNNNNNNNNNNNNNNNNNNNNNNNNNNNNNNNNNNNNNNNNNNNNNNNNNNNNNNN20200417000000001
Bloque: 121935850340045608710387650005                    CACaja de Ahorro      S$         034BANCO PATAGONIA                20121935857RIBENSKY, RICARDO   /RIBENSKY, TAMARA NOE/                  P00000000000NNNNNNNNNNNNNNNNNNNNNNNNNNNNNNNNNNNNNNNNNNNNNNNNNNNNNNNNNNNNP00000000000NNNNNNNNNNNNNNNNNNNNNNNNNNNNNNNNNNNNNNNNNNNNNNNNNNNNNNNNNNNNP00000000000NNNNNNNNNNNNNNNNNNNNNNNNNNNNNNNNNNNNNNNNNNNNNNNNNNNNNNNNNNNN20200404000000001
Bloque: 265206121500685300068560730432                    CACaja de Ahorro      S$         150HSBC BANK ARG. S.A             20265206124LEIVA, JAVIER EDUARDO/                                      P00000000000NNNNNNNNNNNNNNNNNNNNNNNNNNNNNNNNNNNNNNNNNNNNNNNNNNNNNNNNNNNNP00000000000NNNNNNNNNNNNNNNNNNNNNNNNNNNNNNNNNNNNNNNNNNNNNNNNNNNNNNNNNNNNP00000000000NNNNNNNNNNNNNNNNNNNNNNNNNNNNNNNNNNNNNNNNNNNNNNNNNNNNNNNNNNNN20190514000000001
Bloque: 267017250340216208216010940012                    CACaja de Ahorro      S$         034BANCO PATAGONIA                27267017250CAMPUZANO, BETINA SA/                                       P00000000000NNNNNNNNNNNNNNNNNNNNNNNNNNNNNNNNNNNNNNNNNNNNNNNNNNNNNNNNNNNNP00000000000NNNNNNNNNNNNNNNNNNNNNNNNNNNNNNNNNNNNNNNNNNNNNNNNNNNNNNNNNNNNP00000000000NNNNNNNNNNNNNNNNNNNNNNNNNNNNNNNNNNNNNNNNNNNNNNNNNNNNNNNNNNNN20190513000000001
Bloque: 123161991910496655149602212571                    CACaja de Ahorro      S$         191BANCO CREDICOOP                27123161993RUZYCKI ANA MARGARITA                                       P00000000000NNNNNNNNNNNNNNNNNNNNNNNNNNNNNNNNNNNNNNNNNNNNNNNNNNNNNNNNNNNNP00000000000NNNNNNNNNNNNNNNNNNNNNNNNNNNNNNNNNNNNNNNNNNNNNNNNNNNNNNNNNNNNP00000000000NNNNNNNNNNNNNNNNNNNNNNNNNNNNNNNNNNNNNNNNNNNNNNNNNNNNNNNNNNNN20180703000000001
Bloque: 306624961910146255014601135328                    CCCuenta Corriente    S$         191BANCO CREDICOOP                27306624968LEAL REYES ANA BELEN                                        P00000000000NNNNNNNNNNNNNNNNNNNNNNNNNNNNNNNNNNNNNNNNNNNNNNNNNNNNNNNNNNNNP00000000000NNNNNNNNNNNNNNNNNNNNNNNNNNNNNNNNNNNNNNNNNNNNNNNNNNNNNNNNNNNNP00000000000NNNNNNNNNNNNNNNNNNNNNNNNNNNNNNNNNNNNNNNNNNNNNNNNNNNNNNNNNNNN20220704000000001
Bloque: 326227020070071930004032923109                    CACaja de Ahorro      S$         007BANCO DE GALICIA               20326227022ZENIQUEL MIGUEL GUSTAVO                                     P00000000000NNNNNNNNNNNNNNNNNNNNNNNNNNNNNNNNNNNNNNNNNNNNNNNNNNNNNNNNNNNNP00000000000NNNNNNNNNNNNNNNNNNNNNNNNNNNNNNNNNNNNNNNNNNNNNNNNNNNNNNNNNNNNP00000000000NNNNNNNNNNNNNNNNNNNNNNNNNNNNNNNNNNNNNNNNNNNNNNNNNNNNNNNNNNNN20180403000000001
Bloque: 327508660070253130004007696155                    CACaja de Ahorro      S$         007BANCO DE GALICIA               20327508661TELLO VERGARA ANDRES GONZALO                                P00000000000NNNNNNNNNNNNNNNNNNNNNNNNNNNNNNNNNNNNNNNNNNNNNNNNNNNNNNNNNNNNP00000000000NNNNNNNNNNNNNNNNNNNNNNNNNNNNNNNNNNNNNNNNNNNNNNNNNNNNNNNNNNNNP00000000000NNNNNNNNNNNNNNNNNNNNNNNNNNNNNNNNNNNNNNNNNNNNNNNNNNNNNNNNNNNN20190623000000001
