Block: 305799563210270350000006049925                    CACaja de Ahorro      S$         321B. SANTIAGO DEL ESTERO         23305799564RAMIREZ CASTILLO,MARIANELA VANINA                           P00000000000NNNNNNNNNNNNNNNNNNNNNNNNNNNNNNNNNNNNNNNNNNNNNNNNNNNNNNNNNNNNP00000000000NNNNNNNNNNNNNNNNNNNNNNNNNNNNNNNNNNNNNNNNNNNNNNNNNNNNNNNNNNNNP00000000000NNNNNNNNNNNNNNNNNNNNNNNNNNNNNNNNNNNNNNNNNNNNNNNNNNNNNNNNNNNN20190513000000001
Block: 144997452680000611000001056574                    CACaja de Ahorro      S$         268BANCO TIERRA DEL FUEGO         27144997455PELEGRINA LILIANA BEATRIZ                                   P00000000000NNNNNNNNNNNNNNNNNNNNNNNNNNNNNNNNNNNNNNNNNNNNNNNNNNNNNNNNNNNNP00000000000NNNNNNNNNNNNNNNNNNNNNNNNNNNNNNNNNNNNNNNNNNNNNNNNNNNNNNNNNNNNP00000000000NNNNNNNNNNNNNNNNNNNNNNNNNNNNNNNNNNNNNNNNNNNNNNNNNNNNNNNNNNNN20190514000000001
Block: 229030210720229488000037052618                    CCCuenta Corriente    S$         072BANCO SANTANDER RIO            20229030214DOMINGUEZ GUILLERMO MARTIN                                  P00000000000NNNNNNNNNNNNNNNNNNNNNNNNNNNNNNNNNNNNNNNNNNNNNNNNNNNNNNNNNNNNP00000000000NNNNNNNNNNNNNNNNNNNNNNNNNNNNNNNNNNNNNNNNNNNNNNNNNNNNNNNNNNNNP00000000000NNNNNNNNNNNNNNNNNNNNNNNNNNNNNNNNNNNNNNNNNNNNNNNNNNNNNNNNNNNN20190515000000001
Block: 214283581910217555021751326496                    CCCuenta Corriente    S$         191BANCO CREDICOOP                27214283587VILLAGRA MARIA LUZ                                          P00000000000NNNNNNNNNNNNNNNNNNNNNNNNNNNNNNNNNNNNNNNNNNNNNNNNNNNNNNNNNNNNP00000000000NNNNNNNNNNNNNNNNNNNNNNNNNNNNNNNNNNNNNNNNNNNNNNNNNNNNNNNNNNNNP00000000000NNNNNNNNNNNNNNNNNNNNNNNNNNNNNNNNNNNNNNNNNNNNNNNNNNNNNNNNNNNN20190515000000001
Block: 209098770830004131002521480019                    CACaja de Ahorro      S$         083BCO.PROVINCIA CHUBUT           27209098771DELLE COSTE SILVINA ALICIA                                  P00000000000NNNNNNNNNNNNNNNNNNNNNNNNNNNNNNNNNNNNNNNNNNNNNNNNNNNNNNNNNNNNP00000000000NNNNNNNNNNNNNNNNNNNNNNNNNNNNNNNNNNNNNNNNNNNNNNNNNNNNNNNNNNNNP00000000000NNNNNNNNNNNNNNNNNNNNNNNNNNNNNNNNNNNNNNNNNNNNNNNNNNNNNNNNNNNN20180502000000001
Block: 297205782850015740094964334228                    CACAJA DE AHORRO      SS         MBSBANCO MACRO                   F20297205782GERARDO EMANUEL CORREA                                      P00000000000NNNNNNNNNNNNNNNNNNNNNNNNNNNNNNNNNNNNNNNNNNNNNNNNNNNNNNNNNNNNP00000000000NNNNNNNNNNNNNNNNNNNNNNNNNNNNNNNNNNNNNNNNNNNNNNNNNNNNNNNNNNNNP00000000000NNNNNNNNNNNNNNNNNNNNNNNNNNNNNNNNNNNNNNNNNNNNNNNNNNNNNNNNNNNN20190514000000001
Block: 300516580110732830073201330079                    CACaja de Ahorro      S$         011BCO. NACION ARGENTINA          27300516586CABELLO SANTIAGO GISELA EDIT                                P00000000000NNNNNNNNNNNNNNNNNNNNNNNNNNNNNNNNNNNNNNNNNNNNNNNNNNNNNNNNNNNNP00000000000NNNNNNNNNNNNNNNNNNNNNNNNNNNNNNNNNNNNNNNNNNNNNNNNNNNNNNNNNNNNP00000000000NNNNNNNNNNNNNNNNNNNNNNNNNNNNNNNNNNNNNNNNNNNNNNNNNNNNNNNNNNNN20220902000000001
Block: 359631091500131500013160300864                    CACaja de Ahorro      S$         150HSBC BANK ARG. S.A             27359631095PERALTA, DEBORA DAYANA/                                     P00000000000NNNNNNNNNNNNNNNNNNNNNNNNNNNNNNNNNNNNNNNNNNNNNNNNNNNNNNNNNNNNP00000000000NNNNNNNNNNNNNNNNNNNNNNNNNNNNNNNNNNNNNNNNNNNNNNNNNNNNNNNNNNNNP00000000000NNNNNNNNNNNNNNNNNNNNNNNNNNNNNNNNNNNNNNNNNNNNNNNNNNNNNNNNNNNN20190515000000001
Block: 319651520070349730004012514879                    CACaja de Ahorro      S$         007BANCO DE GALICIA               20319651528JARA PABLO GERMAN                                           P00000000000NNNNNNNNNNNNNNNNNNNNNNNNNNNNNNNNNNNNNNNNNNNNNNNNNNNNNNNNNNNNP00000000000NNNNNNNNNNNNNNNNNNNNNNNNNNNNNNNNNNNNNNNNNNNNNNNNNNNNNNNNNNNNP00000000000NNNNNNNNNNNNNNNNNNNNNNNNNNNNNNNNNNNNNNNNNNNNNNNNNNNNNNNNNNNN20190513000000001
Block: 370663790070011530004028037216                    CACaja de Ahorro      S$         007BANCO DE GALICIA               27370663799GOMEZ  LORENA ARACELI                                       P00000000000NNNNNNNNNNNNNNNNNNNNNNNNNNNNNNNNNNNNNNNNNNNNNNNNNNNNNNNNNNNNP00000000000NNNNNNNNNNNNNNNNNNNNNNNNNNNNNNNNNNNNNNNNNNNNNNNNNNNNNNNNNNNNP00000000000NNNNNNNNNNNNNNNNNNNNNNNNNNNNNNNNNNNNNNNNNNNNNNNNNNNNNNNNNNNN20190513000000001
Block: 219446100720264588000035761822                    CCCuenta Corriente    S$         072BANCO SANTANDER RIO            27219446107PAJON PARRA MYRNA RUTH                                      P00000000000NNNNNNNNNNNNNNNNNNNNNNNNNNNNNNNNNNNNNNNNNNNNNNNNNNNNNNNNNNNNP00000000000NNNNNNNNNNNNNNNNNNNNNNNNNNNNNNNNNNNNNNNNNNNNNNNNNNNNNNNNNNNNP00000000000NNNNNNNNNNNNNNNNNNNNNNNNNNNNNNNNNNNNNNNNNNNNNNNNNNNNNNNNNNNN20190515000000001
Block: 241839360070081830004048440777                    CACAJA DE AHORRO      SS         LCABanco Galicia                 F27241839368GIMENA HEREDIA                                              P00000000000NNNNNNNNNNNNNNNNNNNNNNNNNNNNNNNNNNNNNNNNNNNNNNNNNNNNNNNNNNNNP00000000000NNNNNNNNNNNNNNNNNNNNNNNNNNNNNNNNNNNNNNNNNNNNNNNNNNNNNNNNNNNNP00000000000NNNNNNNNNNNNNNNNNNNNNNNNNNNNNNNNNNNNNNNNNNNNNNNNNNNNNNNNNNNN20190514000000001
Block: 221646020720209688000036884454                    CCCuenta Corriente    S$         072SANTANDER                      27221646024ARAUJO EVANGELINA BARCILICI                                 P00000000000NNNNNNNNNNNNNNNNNNNNNNNNNNNNNNNNNNNNNNNNNNNNNNNNNNNNNNNNNNNNP00000000000NNNNNNNNNNNNNNNNNNNNNNNNNNNNNNNNNNNNNNNNNNNNNNNNNNNNNNNNNNNNP00000000000NNNNNNNNNNNNNNNNNNNNNNNNNNNNNNNNNNNNNNNNNNNNNNNNNNNNNNNNNNNN20200812000000001
Block: 229847030290040710000051384439                    CACAJA DE AHORRO      SS         INKBANCO CIUDAD                  F20229847032FABIAN ALEJANDRO RIOS                                       P00000000000NNNNNNNNNNNNNNNNNNNNNNNNNNNNNNNNNNNNNNNNNNNNNNNNNNNNNNNNNNNNP00000000000NNNNNNNNNNNNNNNNNNNNNNNNNNNNNNNNNNNNNNNNNNNNNNNNNNNNNNNNNNNNP00000000000NNNNNNNNNNNNNNNNNNNNNNNNNNNNNNNNNNNNNNNNNNNNNNNNNNNNNNNNNNNN20190515000000001
Block: 144051940110266830026609061601                    CACaja de Ahorro      S$         011BCO. NACION ARGENTINA          27144051942ROUSE LILIANA EDITH                                         P00000000000NNNNNNNNNNNNNNNNNNNNNNNNNNNNNNNNNNNNNNNNNNNNNNNNNNNNNNNNNNNNP00000000000NNNNNNNNNNNNNNNNNNNNNNNNNNNNNNNNNNNNNNNNNNNNNNNNNNNNNNNNNNNNP00000000000NNNNNNNNNNNNNNNNNNNNNNNNNNNNNNNNNNNNNNNNNNNNNNNNNNNNNNNNNNNN20190513000000001
Block: 294641900940099360006165040026                    CACaja de Ahorro      S$         094BANCO CORRIENTES               23294641904GIACOMUZZI MARIA EUGENIA                                    P00000000000NNNNNNNNNNNNNNNNNNNNNNNNNNNNNNNNNNNNNNNNNNNNNNNNNNNNNNNNNNNNP00000000000NNNNNNNNNNNNNNNNNNNNNNNNNNNNNNNNNNNNNNNNNNNNNNNNNNNNNNNNNNNNP00000000000NNNNNNNNNNNNNNNNNNNNNNNNNNNNNNNNNNNNNNNNNNNNNNNNNNNNNNNNNNNN20190513000000001
Block: 277152740940099366001255880018                    CACaja de Ahorro      S$         094BANCO CORRIENTES               27277152741BARRIOS ROSALIA ANDREA ITATI                                P00000000000NNNNNNNNNNNNNNNNNNNNNNNNNNNNNNNNNNNNNNNNNNNNNNNNNNNNNNNNNNNNP00000000000NNNNNNNNNNNNNNNNNNNNNNNNNNNNNNNNNNNNNNNNNNNNNNNNNNNNNNNNNNNNP00000000000NNNNNNNNNNNNNNNNNNNNNNNNNNNNNNNNNNNNNNNNNNNNNNNNNNNNNNNNNNNN20180305000000001
Block: 228695930150830501000111666208                    CACAJA DE AHORRO      SS         STNICBC                          F27228695934SILVIA VERONICA TORRES                                      P00000000000NNNNNNNNNNNNNNNNNNNNNNNNNNNNNNNNNNNNNNNNNNNNNNNNNNNNNNNNNNNNP00000000000NNNNNNNNNNNNNNNNNNNNNNNNNNNNNNNNNNNNNNNNNNNNNNNNNNNNNNNNNNNNP00000000000NNNNNNNNNNNNNNNNNNNNNNNNNNNNNNNNNNNNNNNNNNNNNNNNNNNNNNNNNNNN20190514000000001
Block: 124680590200349611000014748776                    CACaja de Ahorro      S$         020BCO PCIA DE CORDOBA SA         20124680590FRANCESCHINI, GUSTAVO TOMAS                                 P00000000000NNNNNNNNNNNNNNNNNNNNNNNNNNNNNNNNNNNNNNNNNNNNNNNNNNNNNNNNNNNNP00000000000NNNNNNNNNNNNNNNNNNNNNNNNNNNNNNNNNNNNNNNNNNNNNNNNNNNNNNNNNNNNP00000000000NNNNNNNNNNNNNNNNNNNNNNNNNNNNNNNNNNNNNNNNNNNNNNNNNNNNNNNNNNNN20220609000000001
Block: 367935570170247940000004149699                    CACaja de Ahorro      S$         017BBVA FRANCES                   20367935570GONZALEZ  MARCELO FE                                        P00000000000NNNNNNNNNNNNNNNNNNNNNNNNNNNNNNNNNNNNNNNNNNNNNNNNNNNNNNNNNNNNP00000000000NNNNNNNNNNNNNNNNNNNNNNNNNNNNNNNNNNNNNNNNNNNNNNNNNNNNNNNNNNNNP00000000000NNNNNNNNNNNNNNNNNNNNNNNNNNNNNNNNNNNNNNNNNNNNNNNNNNNNNNNNNNNN20190514000000001
Block: 113883730070112530004191099118                    CACaja de Ahorro      S$         007BANCO DE GALICIA               27113883737CARBAJAL NOEMI CATALIN                                      P00000000000NNNNNNNNNNNNNNNNNNNNNNNNNNNNNNNNNNNNNNNNNNNNNNNNNNNNNNNNNNNNP00000000000NNNNNNNNNNNNNNNNNNNNNNNNNNNNNNNNNNNNNNNNNNNNNNNNNNNNNNNNNNNNP00000000000NNNNNNNNNNNNNNNNNNNNNNNNNNNNNNNNNNNNNNNNNNNNNNNNNNNNNNNNNNNN20190515000000001
Block: 319644112990044404410778360019                    CACaja de Ahorro      S$         299BANCO COMAFI                   27319644119VERETTI BARBARA JACQUELINE                                  P00000000000NNNNNNNNNNNNNNNNNNNNNNNNNNNNNNNNNNNNNNNNNNNNNNNNNNNNNNNNNNNNP00000000000NNNNNNNNNNNNNNNNNNNNNNNNNNNNNNNNNNNNNNNNNNNNNNNNNNNNNNNNNNNNP00000000000NNNNNNNNNNNNNNNNNNNNNNNNNNNNNNNNNNNNNNNNNNNNNNNNNNNNNNNNNNNN20191210000000001
Block: 346831172850794340095472155158                    CACaja de Ahorro      S$         285BANCO MACRO                    20346831171SANTANDREA BRUNO                                            P00000000000NNNNNNNNNNNNNNNNNNNNNNNNNNNNNNNNNNNNNNNNNNNNNNNNNNNNNNNNNNNNP00000000000NNNNNNNNNNNNNNNNNNNNNNNNNNNNNNNNNNNNNNNNNNNNNNNNNNNNNNNNNNNNP00000000000NNNNNNNNNNNNNNNNNNNNNNNNNNNNNNNNNNNNNNNNNNNNNNNNNNNNNNNNNNNN20230412000000001
Block: 352412100070177430004033293311                    CACaja de Ahorro      S$         007BANCO DE GALICIA               20352412105OLIVERA BURGOS LUCAS MARTIN                                 P00000000000NNNNNNNNNNNNNNNNNNNNNNNNNNNNNNNNNNNNNNNNNNNNNNNNNNNNNNNNNNNNP00000000000NNNNNNNNNNNNNNNNNNNNNNNNNNNNNNNNNNNNNNNNNNNNNNNNNNNNNNNNNNNNP00000000000NNNNNNNNNNNNNNNNNNNNNNNNNNNNNNNNNNNNNNNNNNNNNNNNNNNNNNNNNNNN20190515000000001
Block: 209568980720734388000035608868                    CCCuenta Corriente    S$         072BANCO SANTANDER RIO            27209568980ANTOLA DANIELA MARIA FERNANDO                               P00000000000NNNNNNNNNNNNNNNNNNNNNNNNNNNNNNNNNNNNNNNNNNNNNNNNNNNNNNNNNNNNP00000000000NNNNNNNNNNNNNNNNNNNNNNNNNNNNNNNNNNNNNNNNNNNNNNNNNNNNNNNNNNNNP00000000000NNNNNNNNNNNNNNNNNNNNNNNNNNNNNNNNNNNNNNNNNNNNNNNNNNNNNNNNNNNN20190514000000001
Block: 350093500720181988000036418536                    CCCuenta Corriente    S$         072BANCO SANTANDER RIO            27350093503GARCIA SANDRA ROMINA                                        P00000000000NNNNNNNNNNNNNNNNNNNNNNNNNNNNNNNNNNNNNNNNNNNNNNNNNNNNNNNNNNNNP00000000000NNNNNNNNNNNNNNNNNNNNNNNNNNNNNNNNNNNNNNNNNNNNNNNNNNNNNNNNNNNNP00000000000NNNNNNNNNNNNNNNNNNNNNNNNNNNNNNNNNNNNNNNNNNNNNNNNNNNNNNNNNNNN20190514000000001
Block: 322388540070076430004032389613DORADO.BURRO.PATRON CACaja de Ahorro      S$         007BANCO DE GALICIA               27322388549VIDELA CARLA                                                P00000000000NNNNNNNNNNNNNNNNNNNNNNNNNNNNNNNNNNNNNNNNNNNNNNNNNNNNNNNNNNNNP00000000000NNNNNNNNNNNNNNNNNNNNNNNNNNNNNNNNNNNNNNNNNNNNNNNNNNNNNNNNNNNNP00000000000NNNNNNNNNNNNNNNNNNNNNNNNNNNNNNNNNNNNNNNNNNNNNNNNNNNNNNNNNNNN20180703000000001
